:020000040800F2
:108000000000022039EF000835DB00083DDB0008E6
:1080100045DB00084DDB000855DB000800000000D0
:108020000000000000000000000000005DDB000810
:108030006BDB00080000000079DB000887DB00082C
:1080400089EF000889EF000889EF000889EF000830
:1080500089EF000889EF000889EF000889EF000820
:1080600089EF000889EF000889EF000889EF000810
:1080700089EF000889EF000889EF000889EF000800
:1080800089EF000889EF000889EF000889EF0008F0
:1080900089EF000889EF000889EF000893DB0008EA
:1080A000A1DB0008B5DB0008C9DB000889EF000888
:1080B00089EF0008DDDB000889EF000889EF000880
:1080C00089EF000889EF000889EF000889EF0008B0
:1080D00089EF0008F1DB000889EF000805DC0008E3
:1080E00089EF000889EF000889EF000819DC000813
:1080F00089EF000889EF000889EF000889EF000880
:1081000089EF000889EF00082DDC000889EF0008DE
:1081100089EF000889EF000889EF000889EF00085F
:1081200089EF000889EF000889EF000889EF00084F
:1081300089EF0008000000000000000089EF00083F
:1081400089EF000889EF000889EF000889EF00082F
:1081500089EF000889EF000889EF000889EF00081F
:1081600089EF000889EF000889EF000889EF00080F
:1081700089EF000889EF000889EF0008000000007F
:108180000000000089EF000800000000000000006F
:1081900089EF0008000000000000000089EF0008DF
:1081A00000000000000000000000000089EF00084F
:1081B00089EF000889EF000889EF000889EF0008BF
:0481C00089EF00083B
:1081D00010B5054C237833B9044B13B10448AFF301
:1081E00000800123237010BDC004002000000000A7
:1081F000708E010808B5034B1BB103490348AFF368
:10820000008008BD00000000C4040020708E01083A
:1082100010F8012B11F8013B012A28BF9A42F7D030
:10822000D01A7047000000000000000000000000AD
:1082300001F0FF01102A2BDB10F0070F08D010F817
:10824000013B013A8B422DD010F0070F42B3F6D11B
:10825000F0B441EA012141EA014122F007047FF034
:1082600000070023F0E80256083C85EA010586EA8B
:10827000010685FA47F5A3FA87F586FA47F6A5FAC7
:1082800087F68EB9EED1F0BC01F0FF0102F00702D3
:1082900032B110F8013B013A83EA010313B1F8D17E
:1082A0000020704701387047002D06BF354603385F
:1082B000073815F0010F07D1013015F4807F02BF98
:1082C000013015F4C03F0130F0BC0138704700BFE9
:1082D000034613F8012B002AFBD1181A0138704706
:1082E00081F0004102E000BF83F0004330B54FEA67
:1082F00041044FEA430594EA050F08BF90EA020FD4
:108300001FBF54EA000C55EA020C7FEA645C7FEA66
:10831000655C00F0E2804FEA5454D4EB5555B8BF89
:108320006D420CDD2C4480EA020281EA030382EAFA
:10833000000083EA010180EA020281EA0303362D8C
:1083400088BF30BD11F0004F4FEA01314FF4801C5F
:108350004CEA113102D0404261EB410113F0004F71
:108360004FEA03334CEA133302D0524263EB430328
:1083700094EA050F00F0A780A4F10104D5F1200EC6
:108380000DDB02FA0EFC22FA05F2801841F1000121
:1083900003FA0EF2801843FA05F359410EE0A5F1F5
:1083A00020050EF1200E012A03FA0EFC28BF4CF026
:1083B000020C43FA05F3C01851EBE37101F00045DC
:1083C00007D54FF0000EDCF1000C7EEB00006EEBE9
:1083D0000101B1F5801F1BD3B1F5001F0CD3490873
:1083E0005FEA30004FEA3C0C04F101044FEA4452CA
:1083F00012F5800F80F09A80BCF1004F08BF5FEA51
:10840000500C50F1000041EB045141EA050130BD30
:108410005FEA4C0C404141EB0101013C28BFB1F542
:10842000801FE9D291F0000F04BF01460020B1FA8D
:1084300081F308BF2033A3F10B03B3F120020CDA60
:108440000C3208DD02F1140CC2F10C0201FA0CF03E
:1084500021FA02F10CE002F11402D8BFC2F1200CA3
:1084600001FA02F120FA0CFCDCBF41EA0C01904059
:10847000E41AA2BF01EB0451294330BD6FEA0404A2
:108480001F3C1CDA0C340EDC04F11404C4F120028D
:1084900020FA04F001FA02F340EA030021FA04F39F
:1084A00045EA030130BDC4F10C04C4F1200220FAF6
:1084B00002F001FA04F340EA0300294630BD21FA34
:1084C00004F0294630BD94F0000F83F4801306BFFA
:1084D00081F480110134013D4EE77FEA645C18BFEE
:1084E0007FEA655C29D094EA050F08BF90EA020F85
:1084F00005D054EA000C04BF1946104630BD91EA7D
:10850000030F1EBF0021002030BD5FEA545C05D17F
:108510004000494128BF41F0004130BD14F58004BE
:108520003CBF01F5801130BD01F0004545F0FE4132
:1085300041F470014FF0000030BD7FEA645C1ABF67
:10854000194610467FEA655C1CBF0B46024650EA9E
:10855000013406BF52EA033591EA030F41F40021CA
:1085600030BD00BF90F0000F04BF0021704730B550
:108570004FF4806404F132044FF000054FF0000125
:1085800050E700BF90F0000F04BF0021704730B5E6
:108590004FF4806404F1320410F0004548BF4042BB
:1085A0004FF000013EE700BF42004FEAE2014FEA10
:1085B00031014FEA02701FBF12F07F4393F07F4FEB
:1085C00081F06051704732F07F4208BF704793F0EE
:1085D0007F4F04BF41F40021704730B54FF4607401
:1085E00001F0004521F000411CE700BF50EA010204
:1085F00008BF704730B54FF000050AE050EA0102AD
:1086000008BF704730B511F0004502D5404261EB1C
:1086100041014FF4806404F132045FEA915C3FF45D
:10862000D8AE4FF003025FEADC0C18BF03325FEAFA
:10863000DC0C18BF033202EBDC02C2F1200300FAAB
:1086400003FC20FA02F001FA03FE40EA0E0021FAD0
:1086500002F11444BDE600BF70B54FF0FF0C4CF4BE
:10866000E06C1CEA11541DBF1CEA135594EA0C0F70
:1086700095EA0C0F00F0DEF82C4481EA030621EAAB
:108680004C5123EA4C5350EA013518BF52EA0335E6
:1086900041F4801143F4801338D0A0FB02CE4FF098
:1086A0000005E1FB02E506F00042E0FB03E54FF0C8
:1086B0000006E1FB03569CF0000F18BF4EF0010EC0
:1086C000A4F1FF04B6F5007F64F5407404D25FEABC
:1086D0004E0E6D4146EB060642EAC62141EA55516F
:1086E0004FEAC52040EA5E504FEACE2EB4F1FD0CB1
:1086F00088BFBCF5E06F1ED8BEF1004F08BF5FEA2F
:10870000500E50F1000041EB045170BD06F00046E0
:1087100046EA010140EA020081EA0301B4EB5C048D
:10872000C2BFD4EB0C0541EA045170BD41F4801185
:108730004FF0000E013C00F3AB8014F1360FDEBFAA
:10874000002001F0004170BDC4F10004203C35DA86
:108750000C341BDC04F11404C4F1200500FA05F309
:1087600020FA04F001FA05F240EA020001F00042AA
:1087700021F0004110EBD37021FA04F642EB060120
:108780005EEA430E08BF20EAD37070BDC4F10C044A
:10879000C4F1200500FA04F320FA05F001FA04F20E
:1087A00040EA020001F0004110EBD37041F10001FA
:1087B0005EEA430E08BF20EAD37070BDC4F1200505
:1087C00000FA05F24EEA020E20FA04F301FA05F26D
:1087D00043EA020321FA04F001F0004121FA04F215
:1087E00020EA020000EBD3705EEA430E08BF20EAE5
:1087F000D37070BD94F0000F0FD101F0004640001F
:1088000041EB010111F4801F08BF013CF7D041EAA0
:10881000060195F0000F18BF704703F000465200A4
:1088200043EB030313F4801F08BF013DF7D043EA75
:108830000603704794EA0C0F0CEA135518BF95EA2B
:108840000C0F0CD050EA410618BF52EA4306D1D1B2
:1088500081EA030101F000414FF0000070BD50EAD1
:10886000410606BF1046194652EA430619D094EA5B
:108870000C0F02D150EA013613D195EA0C0F05D145
:1088800052EA03361CBF104619460AD181EA030199
:1088900001F0004141F0FE4141F470014FF0000051
:1088A00070BD41F0FE4141F4780170BD70B54FF0EC
:1088B000FF0C4CF4E06C1CEA11541DBF1CEA13556C
:1088C00094EA0C0F95EA0C0F00F0A7F8A4EB05044E
:1088D00081EA030E52EA03354FEA013100F0888045
:1088E0004FEA03334FF0805545EA131343EA12630E
:1088F0004FEA022245EA111545EA10654FEA0026C3
:108900000EF000419D4208BF964244F1FD0404F57B
:10891000407402D25B084FEA3202B61A65EB0305D7
:108920005B084FEA32024FF480104FF4002CB6EB94
:10893000020E75EB030E22BFB61A754640EA0C0014
:108940005B084FEA3202B6EB020E75EB030E22BF54
:10895000B61A754640EA5C005B084FEA3202B6EB95
:10896000020E75EB030E22BFB61A754640EA9C0054
:108970005B084FEA3202B6EB020E75EB030E22BF24
:10898000B61A754640EADC0055EA060E18D04FEAE2
:10899000051545EA16754FEA06164FEAC30343EA82
:1089A00052734FEAC2025FEA1C1CC0D111F4801F4F
:1089B0000BD141EA00014FF000004FF0004CB6E748
:1089C00011F4801F04BF01430020B4F1FD0C88BFE7
:1089D000BCF5E06F3FF6AFAEB5EB030C04BFB6EBF2
:1089E000020C5FEA500C50F1000041EB045170BDE5
:1089F0000EF0004E4EEA113114EB5C04C2BFD4EB12
:108A00000C0541EA045170BD41F480114FF0000E95
:108A1000013C90E645EA060E8DE60CEA135594EA11
:108A20000C0F08BF95EA0C0F3FF43BAF94EA0C0F14
:108A30000AD150EA01347FF434AF95EA0C0F7FF489
:108A400025AF104619462CE795EA0C0F06D152EADD
:108A500003353FF4FDAE1046194622E750EA4106C1
:108A600018BF52EA43067FF4C5AE50EA41047FF4D2
:108A70000DAF52EA43057FF4EBAE12E74FF0FF3C37
:108A800006E000BF4FF0010C02E000BF4FF0010C08
:108A90004DF804CD4FEA410C7FEA6C5C4FEA430C81
:108AA00018BF7FEA6C5C1BD001B050EA410C0CBFD0
:108AB00052EA430C91EA030F02BF90EA020F002032
:108AC000704710F1000F91EA030F58BF994208BF99
:108AD00090422CBFD8176FEAE37040F00100704756
:108AE0004FEA410C7FEA6C5C02D150EA013C07D1AD
:108AF0004FEA430C7FEA6C5CD6D152EA033CD3D0F8
:108B00005DF8040B704700BF8446104662468C46F1
:108B10001946634600E000BF01B5FFF7B7FF002824
:108B200048BF10F1000F01BD4DF808EDFFF7F4FF4D
:108B30000CBF012000205DF808FB00BF4DF808EDD8
:108B4000FFF7EAFF34BF012000205DF808FB00BFFB
:108B50004DF808EDFFF7E0FF94BF012000205DF81D
:108B600008FB00BF4DF808EDFFF7CEFF94BF0120D2
:108B700000205DF808FB00BF4DF808EDFFF7C4FFCB
:108B800034BF012000205DF808FB00BF4FEA410C14
:108B90007FEA6C5C02D150EA013C0AD14FEA430CF7
:108BA0007FEA6C5C02D152EA033C02D14FF0000034
:108BB00070474FF0010070474FEA410212F5001272
:108BC00015D211D56FF47873B3EB625212D94FEA14
:108BD000C12343F0004343EA505311F0004F23FAFE
:108BE00002F018BF404270474FF00000704750EA53
:108BF000013005D111F0004008BF6FF00040704710
:108C00004FF00000704700BF4A0011D212F5001269
:108C100011D20DD56FF47873B3EB62520ED44FEAD4
:108C2000C12343F0004343EA505323FA02F0704754
:108C30004FF00000704750EA013002D14FF0FF3092
:108C400070474FF0000070474FEA4102B2F1E04335
:108C500024BFB3F5001CDCF1FE5C0DD901F0004C23
:108C60004FEAC0024CEA5070B2F1004F40EB830073
:108C700008BF20F00100704711F0804F21D113F19F
:108C80003872BCBF01F00040704741F480114FEAD8
:108C90005252C2F11802C2F1200C10FA0CF320FA61
:108CA00002F018BF40F001004FEAC1234FEAD3237E
:108CB00003FA0CFC40EA0C0023FA02F34FEA4303E8
:108CC000CCE77FEA625307D150EA01331EBF4FF071
:108CD000FE4040F44000704701F0004040F0FE408C
:108CE00040F40000704700BF53B94AB9002908BFDB
:108CF00000281CBF4FF0FF314FF0FF3000F0BEB92D
:108D0000ADF1080C6DE904CE00F03CF8DDF804E0AC
:108D1000DDE9022304B0704738B500220023044681
:108D20000D46FFF70BFF28B920462946BDE838401D
:108D300000F00AB8204605F1004100F005F8404275
:108D400061EB410138BD00BFD0B50C4B0022064697
:108D50000F46FFF781FCFFF757FF0446FFF702FCC1
:108D6000074B0022FFF778FC02460B463046394697
:108D7000FFF7BAFAFFF748FF2146D0BD0000F03DEB
:108D80000000F0412DE9F047089D8E4604468846D4
:108D9000002B4AD18A42174662D9B2FA82F64EB106
:108DA000C6F1200301FA06F820FA03F3B74043EABC
:108DB0000808B4404FEA174E1FFA87FCB8FBFEF1D3
:108DC000230C0EFB118843EA084301FB0CF29A4284
:108DD00009D9FB1801F1FF3080F0EA809A4240F295
:108DE000E78002393B449A1AA3B2B2FBFEF00EFBB5
:108DF000102243EA024300FB0CFC9C4509D9FB18F6
:108E000000F1FF3280F0D6809C4540F2D3803B4495
:108E1000023840EA0140A3EB0C0300211DB1F340EE
:108E20000022C5E90032BDE8F0878B4205D90DB1BB
:108E3000C5E9000100210846F5E7B3FA83F10029EE
:108E400046D1734502D3824200F20581841A6EEB4B
:108E5000030201209046002DE5D0C5E90048E2E775
:108E6000002A00F09080B2FA82F6002E40F0A48032
:108E70008A1A030C4FEA174E80B2BCB20121B2FB32
:108E8000FEFC0EFB1C2243EA024304FB0CF29A4256
:108E900007D9FB180CF1FF3802D29A4200F2E080A9
:108EA000C4469B1AB3FBFEF20EFB123340EA0343A7
:108EB00002FB04F49C4207D9FB1802F1FF3002D2F6
:108EC0009C4200F2CA8002461B1B42EA0C40A5E706
:108ED000C1F120068B4022FA06F71F430EFA01F477
:108EE00020FA06F32EFA06FE4FEA1749234300FA4A
:108EF00001F81FFA87FCBEFBF9F01C0C09FB10EE11
:108F000044EA0E4400FB0CFEA64502FA01F209D920
:108F10003C1900F1FF3A80F09C80A64540F2998010
:108F200002383C44A4EB0E041FFA83FEB4FBF9F3B1
:108F300009FB13444EEA044403FB0CFCA44508D986
:108F40003C1903F1FF3E80F08280A4457FD9023BAB
:108F50003C4443EA0040A4EB0C04A0FB02EC644553
:108F60007346E14662D35FD05DB1B8EB030264EBB8
:108F7000090404FA06F622FA01F31E43CC40C5E9BF
:108F8000006400214FE7B1FBF2FC010C41EA0E4105
:108F900080B240EA01423B4638463C46B846BE46AF
:108FA0002026B1FBF7F1A2EB080241EA0C4166E78B
:108FB000014618E710462CE7C6F120022EFA02F30C
:108FC000B740B14020FA02F24FEA174E0A43B3FB12
:108FD000FEF8BCB20EFB1833110C41EA034108FB4A
:108FE00004F9B04089454FEA104380B23ED9791860
:108FF00008F1FF3C01D289451FD8A1EB0901B1FB63
:10900000FEF909FB04F80EFB191192B242EA014283
:10901000424529D2BA1809F1FF31C4D24245C2D221
:10902000A9F102013A44BEE7F0459DD2BEEB02032E
:109030006CEB070C0138E14696E7A7EB09094944B8
:10904000A8F1020CB1FBFEF909FB04F8DBE773465B
:109050007FE7504666E70846FDE63B44023A33E7C1
:10906000ACF1020C3B441CE749469CE7A1EB09012B
:10907000C446B1FBFEF909FB04F8C4E7704700BF22
:1090800080B500AF00F004F80346184680BD00002C
:1090900080B58AB000AF05F0DFFFF861274B1B6891
:1090A00000225A62264B00221A60244808F0F8FB7E
:1090B000224B1B685B6ABB61214B1B687B6100BF55
:1090C00005F0CAFF0246FB69D31A092BF8D91B4BDE
:1090D0001B685B6A3B611A4B1B68FB60174808F012
:1090E0004FFCFA687B69D31A3B623A69BB699A42C2
:1090F00004D33A69BB69D31A7B620BE03A69BB6956
:10910000D31A03F580337B623B6A002B02D03B6AA3
:10911000013B3B623B6A1B047A6A1344BB60BB6839
:109120004FF47A7202FB03F3064AA2FB0323DB0827
:109130007B607B6818462837BD4680BDD805002077
:10914000D4050020CDCCCCCC80B5AEB002AF7860D9
:109150000023C7F89C30604B00221A6001224FF4B4
:1091600000515E4806F0ECFB002202215C4806F04C
:10917000E7FB0023009332234FF4FA720021594891
:1091800005F0CEFA05F068FFC7F8AC000023C7F879
:109190009830FFF775FFC7F8A800002387F8A730BD
:1091A0004FF47A600AF040FE0346C7F894304FF45B
:1091B0007A600AF039FE0346C7F890300023C7F8FA
:1091C000A0306DE0484B1B6848491846FFF720F86F
:1091D0000346002B02D000F09BFA66E005F03CFF4E
:1091E000C7F88C00D7F88C20D7F8AC30D31A072BEF
:1091F00056D9D7F88C30C7F8AC30FFF741FFC7F825
:109200009800D7F89820D7F8A830D31AC7F89C3020
:10921000D7F8A030B3F57A7F16D2D7F8A0309B00EC
:10922000D7F894201344D7F898201A60D7F8A030C4
:109230009B00D7F890201344D7F89C201A60D7F8E9
:10924000A0300133C7F8A030D7F89C30002BB8BF4E
:109250005B42274A934205DD97F8A730013387F830
:10926000A73002E0002387F8A73097F8A730022B39
:1092700002D900F04DFA18E0D7F8A0101D4BA3FB5F
:1092800001239A0813469B001344CA1A002A07D1E7
:1092900097F8A730002B03D1D7F89830C7F8A8303B
:1092A0000D4B1B687A689A428CD800F031FA0A4B51
:1092B0001B687A689A4202D80B4B0F4A1A60D7F89B
:1092C00094000AF0B9FDD7F890000AF0B5FD00BF90
:1092D000B037BD4680BD00BFCC0500200004024071
:1092E000001002404007002014000020888E010872
:1092F00070110100CDCCCCCC8C8E010880B582B031
:1093000002AF064B1A68064B1B68009332230021FC
:10931000044805F005FA00BFBD4680BD00000020EE
:10932000DC0400204007002080B500AF0021044885
:1093300008F076FC024808F023FB00BF80BD00BFA8
:109340004007002080B584B000AF7860454B002214
:109350001A600023FB6001224FF40051424806F0DE
:10936000EFFA00220221414806F0EAFA404B93E866
:10937000030004F073FB0346002B2CD1FFF7BEFF64
:1093800022E03B4B93E8030004F068FB0346002B0C
:1093900002D00123FB601EE0364B93E8030004F08B
:1093A0005DFB0346002B15D12E4B1B687A689A4251
:1093B0000AD12F4B93E8030004F050FB0346002B27
:1093C00002D12D4B2D4A1A60264B1B687A689A42AF
:1093D000D7D200E000BFFB68012B3DD1214B00221A
:1093E0001A6000BF1F4B1B68092BFBD907E0204BFD
:1093F00093E8030004F032FB0346002B04D0194B22
:109400001B68632BF3D900E000BF164B00221A60E3
:1094100000224FF40051144806F092FA07E0144B72
:1094200093E8030004F01AFB0346002B04D10D4B14
:109430001B68632BF3D900E000BF0A4B1B68642B49
:109440000AD10B4B93E8030004F008FB0346002B02
:1094500002D1094B094A1A60FFF766FF00BF1037B7
:10946000BD4680BDCC050020000402400010024033
:10947000800200208802002014000020908E010845
:1094800080B584B000AF7860484B00221A6000239A
:10949000FB6001224FF40051454806F051FA0022CA
:1094A0000221444806F04CFA434B93E8030004F0D1
:1094B000D5FA0346002B31D1FFF720FF27E03E4BC2
:1094C00093E8030004F0CAFA0346002B07D00123F7
:1094D000FB60364B1B68184601F066FA1EE0374BFE
:1094E00093E8030004F0BAFA0346002B15D12F4B82
:1094F0001B687A689A420AD12F4B93E8030004F064
:10950000ADFA0346002B02D12D4B2E4A1A60274B91
:109510001B687A689A42D2D200E000BFFB68012B38
:109520003DD1224B00221A6000BF204B1B68092B43
:10953000FBD907E0204B93E8030004F08FFA0346C1
:10954000002B04D0194B1B68632BF3D900E000BF3C
:10955000164B00221A6000224FF40051144806F006
:10956000EFF907E0144B93E8030004F077FA0346A1
:10957000002B04D10D4B1B68632BF3D900E000BF17
:109580000A4B1B68642B0AD10B4B93E8030004F0D1
:1095900065FA0346002B02D1094B0A4A1A60FFF70D
:1095A000C3FE00BF1037BD4680BD00BFCC05002004
:1095B00000040240001002408002002088020020C7
:1095C00014000020908E010880B584B000AF786050
:1095D00039603C4B00221A600023FB607B68002B43
:1095E00006D001224FF40051374806F0A9F905E0F2
:1095F00000224FF40051344806F0A2F90022022163
:10960000324806F09DF97B68002B34D1FFF776FED7
:1096100027E02F4B93E8030004F020FA0346002BC9
:1096200025D1284B1B68462B0BD12A4B93E803000E
:1096300004F014FA0346002B03D0274B274A1A6084
:1096400016E0204B1B68642B0BD9224B93E80300D8
:1096500004F004FA0346002B03D01F4B204A1A6083
:1096600006E0184B1A683B689A42D2D300E000BF6C
:10967000FFF75AFE1EE07B68002B1BD0154B93E8CA
:10968000030004F0EBF90346002B13D1FFF736FE7D
:1096900007E00F4B93E8030004F0E0F90346002BCA
:1096A00005D1084B1A683B689A42F2D900E000BF26
:1096B000FFF73AFE0023FB60FFF736FE00BF1037CE
:1096C000BD4680BDCC0500200004024000100240D1
:1096D000880200208002002014000020948E0108DF
:1096E000988E010880B582B002AF064B1A68064B0F
:1096F0001B68009332230021044805F011F800BFD5
:10970000BD4680BD04000020E0040020400700208A
:1097100080B500AF0021044808F082FA024808F042
:109720002FF900BF80BD00BF4007002080B584B086
:1097300000AF7860494B00221A600023FB600023D1
:10974000BB6000224FF40051454806F0F9F80022B2
:109750000221444806F0F4F8434B93E8030004F078
:109760007DF90346002B2DD1FFF7BCFF25E03E4BD2
:1097700093E8030004F072F90346002B02D00123A2
:10978000FB601FE0394B93E8030004F067F90346E0
:10979000002B0AD0314B00221A600123BB6001224A
:1097A0004FF400512E4806F0CBF82C4B1B687A681A
:1097B0009A4202D12E4B2F4A1A60284B1B687A68B6
:1097C0009A42D4D2FB68012B40D1BB68012B3DD11A
:1097D000224B00221A6000BF204B1B68092BFBD9CB
:1097E00007E0214B93E8030004F038F90346002B0F
:1097F00004D01A4B1B68632BF3D900E000BF174B52
:1098000000221A6000224FF40051154806F098F823
:1098100007E0154B93E8030004F020F90346002B02
:1098200004D10E4B1B68632BF3D900E000BF0B4B38
:109830001B68642B0AD10C4B93E8030004F00EF96B
:109840000346002B02D10A4B0A4A1A600023BB6070
:10985000FFF75EFF00BF1037BD4680BDCC0500207E
:109860000004024000100240800200208802002014
:10987000140000209C8E010880B584B000AF786091
:109880004C4B00221A600023FB600023BB600022C7
:109890004FF40051484806F053F80022022147488F
:1098A00006F04EF8464B93E8030004F0D7F8034661
:1098B000002B32D1FFF716FF2AE0414B93E803005B
:1098C00004F0CCF80346002B07D00123FB60394B92
:1098D0001B68184601F068F81FE03A4B93E8030054
:1098E00004F0BCF80346002B0AD0324B00221A6069
:1098F0000123BB6001224FF400512F4806F020F8ED
:109900002C4B1B687A689A4202D12F4B2F4A1A605F
:10991000284B1B687A689A42CFD2FB68012B40D152
:10992000BB68012B3DD1234B00221A6000BF214BA5
:109930001B68092BFBD907E0214B93E8030004F0D7
:109940008DF80346002B04D01A4B1B68632BF3D908
:1099500000E000BF174B00221A6000224FF40051B4
:10996000154805F0EDFF07E0154B93E8030004F000
:1099700075F80346002B04D10E4B1B68632BF3D9FB
:1099800000E000BF0B4B1B68642B0AD10C4B93E823
:10999000030004F063F80346002B02D10A4B0B4A84
:1099A0001A600023BB60FFF7B3FE00BF1037BD464F
:1099B00080BD00BFCC050020000402400010024022
:1099C0008002002088020020140000209C8E0108E4
:1099D00080B586B000AF78603960424B00221A60D3
:1099E00000233B610023FB6000237B617B68002B2D
:1099F00006D001224FF400513B4805F0A1FF05E0DD
:109A000000224FF40051384805F09AFF002202214D
:109A1000364805F095FF364B93E8030004F01EF836
:109A20000346002B01D001237B617B68002B39D0DA
:109A3000FFF758FE2EE02F4B93E8030004F00EF8DA
:109A40000346002B03D02C4B2C4A1A6027E0254BF1
:109A50001B68322B0ED1264B93E8030003F0FEFF68
:109A60000346002B06D07B69002B03D0224B244AEF
:109A70001A6014E01B4B1B68322B0BD91C4B93E86C
:109A8000030003F0EBFF0346002B03D01A4B1D4AE3
:109A90001A6004E0134B1A683B689A42CBD3FFF775
:109AA00037FE16E07B68002B13D1FFF71BFE07E0A3
:109AB000154B93E8030003F0D1FF0346002B05D1BB
:109AC000084B1A683B689A42F2D900E000BFFFF7E2
:109AD0001FFE00233B61FFF71BFE00BF1837BD468A
:109AE00080BD00BFCC0500200004024000100240F1
:109AF00080020020B002002014000020A08E010887
:109B0000A48E0108A88E01088802002080B584B0C8
:109B100002AF78603960104B00221A600F4B0022B0
:109B20001A60012204210E4805F00AFF00224FF4BA
:109B300080410C4805F004FF7A684FF4FA730093F3
:109B400032230021084804F0EBFD642005F090FA70
:109B500000BF0837BD4680BDE4040020E8040020B3
:109B600000100240000802408807002080B500AFC6
:109B70000021094804F040FE084B00221A60084BFF
:109B800000221A60074B00221A60002204210648B6
:109B900005F0D6FE00BF80BD88070020CC05002060
:109BA000E4040020E80400200010024080B584B0E6
:109BB00002AF78603960414B00221A60404B0022AE
:109BC0001A60012204213F4805F0BAFE00224FF43A
:109BD00080413D4805F0B4FE3C4B00221A603B68D2
:109BE00000933223E1220021394804F099FD00BF9F
:109BF000384B93E8030003F031FF0346002B04D1F8
:109C0000324B1B68B3F57A7FF2D90021304804F05B
:109C1000F3FD2E4B1B68B3F57A7F03D32E4B2F4AEF
:109C20001A6002E02C4B2E4A1A600021284804F0EA
:109C3000E3FD294B1B6819462948FEF7E9FA03465C
:109C4000002B30D17A683B680093322300212048F2
:109C500004F066FD41F2883005F00AFA1D4B93E8E6
:109C6000030003F0FBFE0346012B02D11A4B1D4AF1
:109C70001A60194B1B6819461948FEF7C9FA0346C2
:109C8000002B03D147F2305005F0F2F9124B1B685C
:109C900019461348FEF7BCFA0346002B03D14FF4D4
:109CA0007A7000F021F80021094804F0A5FD074B67
:109CB00000221A6000BF0837BD4680BDE4040020C2
:109CC000E80400200010024000080240CC050020FB
:109CD00088070020A002002014000020AC8E01089C
:109CE000B08E0108B48E010880B584B002AF7860F0
:109CF0002C4B00221A60012204212B4805F020FE83
:109D000000224FF48041294805F01AFE284B1B68B9
:109D100000933223E1220021264804F001FD264B66
:109D200093E8030003F09AFE0346012B12D100BF13
:109D30001C4B1B68312BFBD91F4B93E8030003F02E
:109D40008DFE0346012B02D11C4B1D4A1A60154B98
:109D500000221A6000BF184B93E8030003F07EFE58
:109D60000346002B04D10F4B1B687A689A42F2D24B
:109D70000021104804F040FD0A4B1B687A689A42A3
:109D800002D80E4B0E4A1A60064B00221A600D4B89
:109D900000221A600C4B00221A6000BF0837BD4633
:109DA00080BD00BFCC05002000100240000802402A
:109DB0000800002088070020A002002014000020D6
:109DC000AC8E0108E4040020E804002080B400AF59
:109DD0000E4B1B68002B07D10D4B1B68002B03D1CA
:109DE0000C4B0D4A1A6006E0084B1B68002B02D191
:109DF000084B0A4A1A60064B00221A60034B0022E5
:109E00001A6000BFBD465DF8047B7047E80400207F
:109E1000E404002014000020B48E0108B88E01086C
:109E200080B582B002AF064B1A68064B1B680093E0
:109E300032230021044804F073FC00BFBD4680BDFE
:109E40000C000020EC040020B006002080B500AF1C
:109E50000021044807F0E4FE024807F091FD00BF2E
:109E600080BD00BFB006002080B582B000AF786032
:109E70001C4B00221A60012201211B4805F060FDE5
:109E800000220121194805F05BFD194B93E80300FE
:109E900003F0E4FD0346002B19D1FFF7C1FF0FE0EB
:109EA000134B93E8030003F0D9FD0346002B0DD1BB
:109EB0000C4B1B687A689A4202D10E4B0E4A1A600C
:109EC000084B1B687A689A42EAD200E000BF012280
:109ED0000121064805F034FDFFF7B8FF00BF083741
:109EE000BD4680BDCC0500200008024000100240A5
:109EF0009802002014000020BC8E010880B586B0B6
:109F000000AF78603960434B00221A6000233B6148
:109F10000023FB6000237B617B68002B05D00022BF
:109F200001213D4805F00CFD04E0012201213A48E1
:109F300005F006FD00220121384805F001FD384BEF
:109F400093E8030003F08AFD0346002B01D00123B0
:109F50007B617B68002B2DD0FFF762FF22E02D4B49
:109F60001B68C82B0ED12E4B93E8030003F076FD3F
:109F70000346002B06D07B69002B03D0294B2A4ACD
:109F80001A6014E0234B1B68C82B0BD9244B93E8B1
:109F9000030003F063FD0346002B03D0214B234A4B
:109FA0001A6004E01B4B1A683B689A42D7D3FFF74C
:109FB0004DFF22E07B68002B1FD1194B93E8030073
:109FC00003F04CFD0346FB72FB7A002B15D1FFF723
:109FD00027FF0BE0124B93E8030003F03FFD03461D
:109FE000002B03D00F4B114A1A6004E0094B1A688A
:109FF0003B689A42EED9FFF729FF00233B6101221B
:10A000000121064805F09CFCFFF720FF00BF183730
:10A01000BD4680BDCC050020000802400010024073
:10A020009802002014000020C08E0108C48E010890
:10A0300080B582B002AF064B1A68064B1B680093CE
:10A0400032230021044804F06BFB00BFBD4680BDF5
:10A0500010000020F0040020F806002080B500AFBA
:10A060000021044807F0DCFD024807F089FC00BF2E
:10A0700080BD00BFF806002090B589B002AF7860BF
:10A080003960A94B00221A6000237B6100233B61E9
:10A090000023FB607B68002B00F0D48000224FF48B
:10A0A0008051A24805F04CFC00220821A04805F090
:10A0B00047FCA04B93E8030003F0D0FC0346002BC1
:10A0C0000BD19D4B93E8030003F0C8FC0346002B23
:10A0D00003D10123FB6001233B61964B93E803000E
:10A0E00003F0BCFC0346002B07D1934B93E803001D
:10A0F00003F0B4FC0346002B1FD18E4B93E8030002
:10A1000003F0ACFC0346002B07D08B4B93E8030015
:10A1100003F0A4FC0346002B0FD0864B93E803000A
:10A1200003F09CFC0346002B48D0834B93E80300CC
:10A1300003F094FC0346002B40D0FFF779FF38E092
:10A140007C4B93E8030003F089FC0346002B0CBF13
:10A1500001230023DCB2784B93E8030003F07EFC7C
:10A160000346002B0CBF01230023DBB22340DBB2EC
:10A17000002B02D00123FB6020E0704B93E803002A
:10A1800003F06CFC0346002B0AD0674B00221A60D8
:10A1900001237B6101224FF48051644805F0D0FB1C
:10A1A000614B1B683A689A4203D1654B654A1A6055
:10A1B00004E05D4B1B683A689A42C1D2FB68012BF0
:10A1C0003ED17B69002B02D03B69012B38D10022A4
:10A1D0004FF48051554805F0B3FB5B4B1B6800936F
:10A1E00032234FF4FA720021584804F099FA4E4B8A
:10A1F00000221A6000BF4C4B1B68312BFBD94A4B25
:10A2000000221A6001224FF48051484805F098FB63
:10A210000FE0484B93E8030003F020FC0346002BBB
:10A2200007D1454B93E8030003F018FC0346002BCD
:10A2300005D03D4B1B68B3F5FA7FEAD300E000BFC1
:10A24000FFF70CFF7B68002B40F0C88001224FF421
:10A250008051364805F074FB00220821344805F08F
:10A260006FFB344B93E8030003F0F8FB0346002B2D
:10A270000BD1314B93E8030003F0F0FB0346002BB6
:10A2800003D10123FB6001233B612A4B93E80300C8
:10A2900003F0E4FB0346002B07D1274B93E80300B0
:10A2A00003F0DCFB0346002B1FD1224B93E8030095
:10A2B00003F0D4FB0346002B07D01F4B93E80300A9
:10A2C00003F0CCFB0346002B0FD01A4B93E803009E
:10A2D00003F0C4FB0346002B3FD0174B93E8030069
:10A2E00003F0BCFB0346002B37D0FFF7A1FE2FE0A5
:10A2F000104B93E8030003F0B1FB0346002B0AD197
:10A300000D4B93E8030003F0A9FB0346002B02D199
:10A310000123FB6021E0044B1B683A689A4217D185
:10A32000074B084A1A6018E0CC05002000040240E0
:10A3300000100240700200207802002090020020ED
:10A3400014000020C88E0108F0040020F806002048
:10A35000244B1B683A689A42CAD2FB68012B3BD156
:10A360003B69012B38D100224FF480511E4805F083
:10A37000E7FA1E4B1B68009332234FF4FA72002158
:10A380001B4804F0CDF9174B00221A6000BF154B93
:10A390001B68312BFBD9134B00221A6001224FF4AA
:10A3A0008051114805F0CCFA0FE0124B93E80300FE
:10A3B00003F054FB0346002B07D10F4B93E8030037
:10A3C00003F04CFB0346002B05D0064B1B68B3F58E
:10A3D000FA7FEAD300E000BFFFF740FE00BF1C3762
:10A3E000BD4690BDCC05002000040240F0040020D2
:10A3F000F8060020700200207802002080B58CB0A2
:10A4000000AFF860B9607A604FF496737B624FF4E6
:10A4100016733B620023FB770023BB61BB68DA0F36
:10A4200013445B107B61FB68FB77FB7F002B00F024
:10A43000A1808E4B00221A60002208218C4805F072
:10A440007FFA00224FF480518A4805F079FAFFF72D
:10A45000EFFD53E0884B93E8030003F0FFFA034657
:10A46000002B09D1854B93E8030003F0F7FA03466C
:10A47000002B01D1012300E000233B617B4B1B68D3
:10A48000322B06D13B69012B03D17D4B7D4A1A60EB
:10A4900039E0764B1B68322B06D93B69012B03D17F
:10A4A000774B794A1A602EE0BB68B3F5FA7F16DD68
:10A4B0006E4B1B68322B21D9704B93E8030003F0DD
:10A4C000CDFA0346002B19D16B4B93E8030003F040
:10A4D000C5FA0346002B11D00123BB6113E0634B87
:10A4E0001B68322B0AD9644B93E8030003F0B6FAD9
:10A4F0000346002B02D10123BB6104E05B4B1A68C9
:10A50000BB689A42A6D30223FB622DE0574B002280
:10A510001A6021E0BB68B3F5FA7F0EDD534B1B6870
:10A52000322B19D9554B93E8030003F097FA0346F1
:10A53000002B11D10123BB6113E04C4B1B68322B64
:10A540000AD94D4B93E8030003F088FA0346002B29
:10A5500002D10123BB6104E0444B1B687A6A9A4232
:10A56000D8D8FB6A0133FB62FB6A7A689A42CDD283
:10A57000FFF774FDFB7F002B73D13C4B00221A6068
:10A58000002208213A4805F0DBF901224FF48051FE
:10A59000384805F0D5F9FFF74BFD39E0374B93E824
:10A5A000030003F05BFA0346002B09D1324B93E81A
:10A5B000030003F053FA0346002B01D1012300E00E
:10A5C00000233B61294B1B68322B06D13B69012BD1
:10A5D00003D12B4B2B4A1A601FE0244B1B68322BF4
:10A5E00006D93B69012B03D1254B274A1A6014E099
:10A5F0001E4B1B68B3F5967F0AD9204B93E80300E6
:10A6000003F02CFA0346002B02D10123BB6104E0C6
:10A61000164B1A68BB689A42C0D30223BB621AE089
:10A62000124B00221A600EE0104B1B68322B0AD925
:10A63000124B93E8030003F011FA0346002B02D1FA
:10A640000123BB6104E0094B1B683A6A9A42EBD8CC
:10A65000BB6A0133BB62BB6A7A689A42E0D2FFF7F9
:10A66000FDFC00BF3037BD4680BD00BFCC050020DB
:10A670000010024000040240780200207002002016
:10A6800014000020CC8E0108D08E010880B586B061
:10A6900000AFF860B9607A600023FB740023BB74DC
:10A6A00000237B61FB68FB74FB7C002B6AD05C4B56
:10A6B00000221A60002208215A4805F041F90022C0
:10A6C0004FF48051584805F03BF9FFF7B1FC43E0E7
:10A6D0007B68022B1ED1524B1B68322B0BD1534B84
:10A6E00093E8030003F0BAF90346002B03D1504B63
:10A6F000504A1A6035E04A4B1B68332B2CD94B4B20
:10A7000093E8030003F0AAF90346002B24D10123A8
:10A710007B6126E07B68012B1ED1414B1B68322BED
:10A720000BD1454B93E8030003F098F90346002B47
:10A7300003D13F4B3F4A1A6013E0394B1B68322B61
:10A740000AD93D4B93E8030003F088F90346002B38
:10A7500002D101237B6104E0314B1A68BB689A4245
:10A76000B6D3FFF77BFC7B69002B07D1304B1B680E
:10A77000304A934202D02E4B304A1A604FF4FA709E
:10A7800004F076FCFB7C002B46D1254B00221A609E
:10A7900000220821234805F0D3F801224FF480510C
:10A7A000214805F0CDF8FFF743FC1FE01C4B1B6868
:10A7B000322B0BD1204B93E8030003F04FF90346F3
:10A7C000002B03D11A4B1B4A1A6014E0144B1B6870
:10A7D000B3F5C87F0AD9184B93E8030003F03EF99C
:10A7E0000346002B02D101237B6104E00C4B1A6865
:10A7F000BB689A42DAD37B69002B07D10C4B1B68EC
:10A800000C4A934202D00A4B0C4A1A604FF4FA7079
:10A8100004F02EFCFFF722FC00BF1837BD4680BDB8
:10A82000CC05002000100240000402407802002005
:10A8300014000020D48E010870020020D88E010878
:10A8400080B500AF054B1B78012B05D1044800F003
:10A85000C9F8024B00221A7000BF80BD5E050020BF
:10A860002C05002080B590B000AF78602821786872
:10A870000AF024FCF863FB6B002B10D0FA6B7B68AA
:10A88000D31ABB6307F12003BA6B796818460AF044
:10A8900022FC07F12002BB6B134400221A7028210E
:10A8A00028480AF00BFCF863FB6B002B10D0FB6B05
:10A8B000244A9B1A7B6307F10C037A6B21491846E3
:10A8C0000AF009FC07F10C027B6B134400221A709A
:10A8D00007F10C0207F1200311461846FDF798FC1A
:10A8E0000346002B1AD107F1200314220021184639
:10A8F0000AF0DCFB07F10C031422002118460AF0D1
:10A90000D5FB1048FDF7E4FC03469AB24FF0FF3345
:10A910000C490D4808F098F901230EE007F12003D7
:10A920001422002118460AF0C1FB07F10C0314227F
:10A93000002118460AF0BAFB002318464037BD46EE
:10A9400080BD00BF2C050020A808002080B500AF06
:10A95000062004F08FF90D2004F08CF900BF80BDB3
:10A9600080B500AF0C4B1B6819460C48FDF750FC36
:10A970000346002B04D0084B1B68184604F08CF9E2
:10A98000242004F077F9044B044A1A60044B054A6A
:10A990001A6000BF80BD00BF14000020DC8E0108DB
:10A9A000E8020020E08E010880B588B000AF786032
:10A9B0007B6807F10C00094A10210AF019FAF861C6
:10A9C000FB699AB207F10C014FF0FF33044808F01D
:10A9D0003BF900BF2037BD4680BD00BFE88E0108AF
:10A9E000A808002080B5ADF5007D02AF07F5FC7327
:10A9F000A3F5FA731860C348FFF734FF0346012B31
:10AA000009D1FFF7A3FFC04804F046F9242004F061
:10AA100031F902F02AB9BD48FFF724FF0346012BA4
:10AA200015D1FFF793FFBA4B93E8030003F016F834
:10AA30000346002B03D0312004F01CF902E0302043
:10AA400004F018F9242004F015F902F00EB9B14809
:10AA5000FFF708FF0346012B15D1FFF777FFAE4B39
:10AA600093E8030002F0FAFF0346002B03D03120E5
:10AA700004F000F902E0302004F0FCF8242004F097
:10AA8000F9F802F0F2B8A548FFF7ECFE0346012BF7
:10AA900015D1FFF75BFFA24B93E8030002F0DEFF46
:10AAA0000346002B03D0312004F0E4F802E030200C
:10AAB00004F0E0F8242004F0DDF802F0D6B899485C
:10AAC000FFF7D0FE0346012B15D1FFF73FFF964B52
:10AAD00093E8030002F0C2FF0346002B03D03120AD
:10AAE00004F0C8F802E0302004F0C4F8242004F098
:10AAF000C1F802F0BAB88D48FFF7B4FE0346012B47
:10AB000015D1FFF723FF8A4B93E8030002F0A6FF5D
:10AB10000346002B03D0312004F0ACF802E03020D3
:10AB200004F0A8F8242004F0A5F802F09EB88148AB
:10AB3000FFF798FE0346012B15D1FFF707FF7E4B69
:10AB400093E8030002F08AFF0346002B03D0312074
:10AB500004F090F802E0302004F08CF8242004F097
:10AB600089F802F082B87548FFF77CFE0346012B96
:10AB700015D1FFF7EBFE724B93E8030002F06EFF76
:10AB80000346002B03D1312004F074F802E030209A
:10AB900004F070F8242004F06DF802F066B86948FB
:10ABA000FFF760FE0346012B15D1FFF7CFFE664B82
:10ABB00093E8030002F052FF0346002B03D031203C
:10ABC00004F058F802E0302004F054F8242004F097
:10ABD00051F802F04AB85D48FFF744FE0346012BE6
:10ABE00015D1FFF7B3FE5A4B93E8030002F036FF8E
:10ABF0000346002B03D0312004F03CF802E0302063
:10AC000004F038F8242004F035F802F02EB851484A
:10AC1000FFF728FE0346012B2BD10023C7F83C3158
:10AC2000FFF794FE07F59E7207F5FC73A3F5FA7320
:10AC3000494918680AF034F9C7F84001D7F840319B
:10AC4000012B08D04FF0FF3317224449444807F046
:10AC5000FBFF02F00FB8434B1B68002B05D0D7F861
:10AC60003C31DBB2184602F00FFFFFF779FE01F02E
:10AC7000FCBF3D48FFF7F6FD0346012B1DD1FFF752
:10AC800065FE07F5FC73A3F5FA73364A3749186871
:10AC90000AF006F9C7F84401D7F84431012B08D06F
:10ACA0004FF0FF3317222D492D4807F0CDFF01F05B
:10ACB000E1BFFFF755FE01F0D8BF2D48FFF7D2FDE9
:10ACC0000346012B40F08C800023C7F83831FFF792
:10ACD0003DFE07F59C7207F5FC73A3F5FA73254951
:10ACE00018680AF0DDF8C7F84801D7F84831012B99
:10ACF00042D04FF0FF3317221849194807F0A4FF3C
:10AD000001F0B8BF20020020EC8E01081C000020DA
:10AD1000800200202800002088020020340000204B
:10AD2000900200203C00002070020020480000201B
:10AD30007802002054000020980200205C000020CF
:10AD4000B002002064000020A00200206C0000205F
:10AD5000A802002074000020F48E0108008F010872
:10AD6000A8080020180000207C000020188F01088F
:10AD700090000020248F01080021BE4802F0B4FD9D
:10AD8000BD4B93E8030004F091F8D7F8383118462A
:10AD900003F09CFFB74802F0D5FDB74B93E80300E2
:10ADA00004F084F84FF47A7004F062F90121B1489C
:10ADB00002F09AFDB04B93E8030004F077F8D7F85F
:10ADC0003831184603F082FFAA4802F0BBFDAA4BB7
:10ADD00093E8030004F06AF8FFF7C2FD01F045BFF5
:10ADE000A648FFF73FFD0346012B51D10023C7F8CA
:10ADF0003431FFF7ABFD07F59A7207F5FC73A3F545
:10AE0000FA739F4918680AF04BF8C7F84C01D7F855
:10AE10004C31012B08D04FF0FF33172299499A4843
:10AE200007F012FF01F026BF0021984802F05CFDF8
:10AE3000914B93E8030004F039F8D7F83431184601
:10AE400003F044FF914802F07DFD8B4B93E8030033
:10AE500004F02CF84FF47A7004F00AF901218B48C1
:10AE600002F042FD844B93E8030004F01FF8D7F88A
:10AE70003431184603F02AFF844802F063FD7E4B0C
:10AE800093E8030004F012F8FFF76AFD01F0EDBE4D
:10AE90007F48FFF7E7FC0346012B11D1FFF756FD72
:10AEA00000217A4802F020FD734B93E8030003F081
:10AEB000FDFFC82004F0DCF8FFF752FD01F0D5BE1D
:10AEC0007448FFF7CFFC0346012B11D1FFF73EFD7D
:10AED0006E4802F037FD684B93E8030003F0E6FF8D
:10AEE0004FF4FA7004F0C4F8FFF73AFD01F0BDBE6C
:10AEF0006948FFF7B7FC0346012B51D10023C7F87F
:10AF00003031FFF723FD07F5987207F5FC73A3F5C1
:10AF1000FA736249186809F0C3FFC7F85001D7F8FF
:10AF20005031012B08D04FF0FF33172255495648B6
:10AF300007F08AFE01F09EBE00214E4802F0D4FCCC
:10AF40004D4B93E8030003F0B1FFD7F830311846BA
:10AF500003F0BCFE474802F0F5FC474B93E80300C2
:10AF600003F0A4FF4FF47A7004F082F80121414805
:10AF700002F0BAFC404B93E8030003F097FFD7F8C8
:10AF80003031184603F0A2FE3A4802F0DBFC3A4B9F
:10AF900093E8030003F08AFFFFF7E2FC01F065BECF
:10AFA0003F48FFF75FFC0346012B19D1FFF7CEFCAA
:10AFB0003C4B93E8030003F069FF3B4B93E803002D
:10AFC00003F054FF394B93E8030003F04FFF384B75
:10AFD00093E8030003F06AFFFFF7C2FC01F045BEEF
:10AFE0003448FFF73FFC0346012B23D1FFF7AEFCAB
:10AFF0002C4B93E8030003F049FF2B4B93E803002D
:10B0000003F044FF294B93E8030003F03FFF284B74
:10B0100093E8030003F04AFF244B93E8030003F096
:10B0200025FF234B93E8030003F040FFFFF798FC54
:10B0300001F01BBE2048FFF715FC0346012B74D11D
:10B04000FFF784FC184B93E8030003F01FFF184B35
:10B0500093E8030003F02AFF124B93E8030003F088
:10B0600015FF134B93E8030003F020FF0123C7F8FB
:10B07000F43144E02802002058020020980000200B
:10B08000308F0108008F0108A80800203802002036
:10B09000A0000020A8000020B40000203C8F010880
:10B0A00020010020D8020020D0020020C802002089
:10B0B0006802002018010020F4000020CC4B93E827
:10B0C000030003F0D3FECB4B93E8030003F0EEFE46
:10B0D0004FF47A7003F0CCFFC54B93E8030003F004
:10B0E000D5FEC44B93E8030003F0E0FE4FF47A7002
:10B0F00003F0BEFFD7F8F4310133C7F8F431D7F8C5
:10B10000F431032BDADDBA4B93E8030003F0AEFE13
:10B11000B84B93E8030003F0C9FE4FF4FA7003F054
:10B12000A7FFFFF71DFC01F0A0BDB348FFF79AFB96
:10B130000346012B50D1FFF709FCB04B93E8030005
:10B1400003F0A4FEAB4B93E8030003F0AFFEA84B63
:10B1500093E8030003F09AFEA64B93E8030003F084
:10B16000A5FE0123C7F8F03120E0A54B93E80300CA
:10B1700003F07CFE9F4B93E8030003F097FE4FF42F
:10B180007A7003F075FF9E4B93E8030003F07EFE98
:10B19000984B93E8030003F089FE4FF47A7003F0B4
:10B1A00067FFD7F8F0310133C7F8F031D7F8F03145
:10B1B000032BDADD8E4B93E8030003F057FE8D4B33
:10B1C00093E8030003F072FE4FF4FA7003F050FFAF
:10B1D000FFF7C6FB01F049BD8A48FFF743FB034672
:10B1E000012B50D1FFF7B2FB844B93E8030003F02F
:10B1F0004DFE804B93E8030003F058FE0123C7F88F
:10B20000EC312AE07E4B93E8030003F02FFE784BED
:10B2100093E8030003F02AFE764B93E8030003F063
:10B2200045FE4FF47A7003F023FF754B93E803005B
:10B2300003F02CFE6E4B93E8030003F027FE6D4BEA
:10B2400093E8030003F032FE4FF47A7003F010FF2E
:10B25000D7F8EC310133C7F8EC31D7F8EC31032BD8
:10B26000D0DD634B93E8030003F000FE614B93E8ED
:10B27000030003F01BFE4FF47A7003F0F9FEFFF7B2
:10B280006FFB01F0F2BC6048FFF7ECFA0346012BBC
:10B2900077D10023C7F82C31FFF758FB07F59672DA
:10B2A00007F5FC73A3F5FA735849186809F0F8FD1F
:10B2B000C7F85401D7F85431012B05D06423172265
:10B2C0005349544807F0C0FCD7F82C31002B19D152
:10B2D0004A4B93E8030003F0D9FD454B93E8030084
:10B2E00003F0D4FD464B93E8030003F0BFFD4A4B47
:10B2F00093E8030003F0FFFD3E4B93E8030003F0E7
:10B30000D5FD3AE0D7F82C31012B19D13B4B93E80E
:10B31000030003F0BBFD364B93E8030003F0B6FDDA
:10B32000374B93E8030003F0A1FD3B4B93E8030088
:10B3300003F0E1FD2F4B93E8030003F0B7FD1CE0A1
:10B34000D7F82C31022B18D12C4B93E8030003F0D3
:10B350009DFD274B93E8030003F098FD284B93E8ED
:10B36000030003F083FD2C4B93E8030003F0C3FDBF
:10B37000204B93E8030003F099FDFFF7F1FA01F089
:10B3800074BC2648FFF76EFA0346012B48D1FFF73D
:10B39000DDFA214B93E8030003F0BDFD184B93E861
:10B3A000030003F073FD134B93E8030003F07EFDED
:10B3B000124B93E8030003F069FD0E4B93E8030082
:10B3C00003F074FD0E4B93E8030003F04FFD084BB0
:10B3D00093E8030003F04AFD064B93E8030003F0F3
:10B3E00065FD642003F044FEFFF7BAFA01F03DBCAE
:10B3F000C80200206802002000010020D8020020BE
:10B40000D00200200C01002028010020448F0108F8
:10B41000008F0108A8080020E0020020340100206D
:10B42000C048FFF71FFA0346012B1ED1FFF78EFA23
:10B43000BD4B93E8030003F0F9FCBC4B93E8030019
:10B4400003F034FD40F6B83003F012FEB64B93E83B
:10B45000030003F0FBFCB54B93E8030003F026FD6B
:10B46000242003F007FC01F000BCB148FFF7FAF913
:10B470000346012B1ED1FFF769FAAE4B93E8030098
:10B4800003F0D4FCA94B93E8030003F00FFD40F652
:10B49000B83003F0EDFDA74B93E8030003F0D6FCB2
:10B4A000A24B93E8030003F001FD242003F0E2FB2C
:10B4B00001F0DBBBA048FFF7D5F90346012B14D1FF
:10B4C000FFF744FA984B93E8030003F0AFFC974B67
:10B4D00093E8030003F0EAFC4FF4FA7003F0C8FDB0
:10B4E000242003F0C7FB01F0C0BB9448FFF7BAF972
:10B4F0000346012B14D1FFF729FA8B4B93E8030085
:10B5000003F0A4FC894B93E8030003F0CFFC4FF455
:10B51000FA7003F0ADFD242003F0ACFB01F0A5BBF5
:10B520008748FFF79FF90346012B14D1FFF70EFA66
:10B53000804B93E8030003F079FC7C4B93E8030015
:10B5400003F0B4FC4FF4FA7003F092FD242003F0F2
:10B5500091FB01F08ABB7B48FFF784F90346012B7E
:10B5600014D1FFF7F3F9734B93E8030003F06EFC7B
:10B570006E4B93E8030003F099FC4FF4FA7003F06C
:10B5800077FD242003F076FB01F06FBB6E48FFF7D8
:10B5900069F90346012B09D1FFF7D8F90021E12011
:10B5A000FEF7B4FAFFF7DCF901F05FBB6748FFF77D
:10B5B00059F90346012B07D1FFF7C8F9FEF7D6FA70
:10B5C000FFF7CEF901F051BB6148FFF74BF9034695
:10B5D000012B26D10023C7F82831FFF7B7F907F56B
:10B5E000947207F5FC73A3F5FA735A49186809F0C9
:10B5F00057FCC7F85801D7F85831012B08D04FF045
:10B60000FF3317225449554807F01EFB01F032BBA7
:10B61000D7F828311846FEF767FBFFF7A1F901F0CC
:10B6200024BB4F48FFF71EF90346012B07D1FFF754
:10B630008DF9FEF7CBFBFFF793F901F016BB4948F4
:10B64000FFF710F90346012B09D1FFF77FF900211D
:10B650001420FEF7ABFAFFF783F901F006BB42486E
:10B66000FFF700F90346012B26D10023C7F8243148
:10B67000FFF76CF907F5927207F5FC73A3F5FA73FF
:10B680003A49186809F00CFCC7F85C01D7F85C313E
:10B69000012B08D04FF0FF3317222F492F4807F016
:10B6A000D3FA01F0E7BAD7F824311846FDF74AFE7D
:10B6B000FFF756F901F0D9BA2D48FFF7D3F8034642
:10B6C000012B59D10023C7F820310023C7F81C31C2
:10B6D000FFF73CF907F58E7307F5907207F5FC71DB
:10B6E000A1F5FA702349006809F0DAFBC7F8600198
:10B6F000D7F86031022B08D04FF0FF3317221649DC
:10B70000164807F0A1FA01F0B5BAD7F820311A4669
:10B71000D7F81C3119461046FDF756FFFFF720F900
:10B7200001F0A3BABC0000204802002068020020FB
:10B73000C400002050020020CC000020D4000020D3
:10B74000E0000020E80000203C010020440100202F
:10B750004C010020508F0108008F0108A80800202C
:10B76000540100205C010020740100205C8F01085E
:10B7700080010020688F0108C448FFF773F8034672
:10B78000012B40F090800023C7F818310023C7F840
:10B7900014310023C7F810310223C7F8E831FFF74E
:10B7A000D5F807F58A7107F58C7207F5FC73A3F5D8
:10B7B000FA7007F5887300930B46B549006809F0E5
:10B7C0006FFBC7F86401D7F86431032B08D04FF042
:10B7D000FF331722AF49B04807F036FA01F04ABAF2
:10B7E000AE4B1B68002B0AD0AD4B93E8030002F070
:10B7F00035F90346002B02D1AA4BAB4A1A60A94B7C
:10B800001B68AA491846FCF703FD0346002B46D1E6
:10B81000D7F8143119460020FDF7D6FEA14B1B685E
:10B82000A2491846FCF7F4FC0346002B37D1D7F8A1
:10B830001031184602F09EF818E002224FF496717B
:10B840000120FEF723FF974B1B6898491846FCF729
:10B85000DFFC0346002B14D1D7F81031184602F054
:10B8600089F8D7F8E8310133C7F8E831D7F818314B
:10B87000012B07D9D7F81831D7F8E8219A42DCD93B
:10B8800000E000BF874B1B6888491846FCF7C0FCE6
:10B890000346002B03D14FF4FA70FDF753FDFFF779
:10B8A0005FF801F0E2B98248FEF7DCFF0346012BA6
:10B8B00040F0BE800023C7F80C310023C7F80831E0
:10B8C0000023C7F804310023C7F800310223C7F86A
:10B8D000E4314FF42F73C7F86C31FFF737F807F5F1
:10B8E000847107F5867207F5FC73A3F5FA7007F506
:10B8F0008073019307F5827300930B466D490068CE
:10B9000009F0CEFAC7F86801D7F86831042B08D0DF
:10B910004FF0FF3317225F495F4807F095F901F0B8
:10B92000A9B9D7F8083119460120FEF751F85D4B47
:10B930001B685E491846FCF76BFC0346002B73D16D
:10B940005D4B93E8030003F071FA5C4B93E803004E
:10B9500003F0ACFA4FF4FA7003F08AFBD7F8043125
:10B9600019460020FEF7CAFA4E4B1B684F4918468D
:10B97000FCF74EFC0346002B56D1D7F80031194690
:10B980000020FEF7BBFA474B1B6848491846FCF7F6
:10B990003FFC0346002B47D122E001224FF4967171
:10B9A0000120FEF773FE3F4B1B6840491846FCF729
:10B9B0002FFC0346002B1ED1D7F80031194600207A
:10B9C000FEF79CFA374B1B6838491846FCF720FCF9
:10B9D0000346002B11D1D7F8E4310133C7F8E43125
:10B9E000D7F80C31012B09D9D7F80C31D7F8E4215D
:10B9F0009A42D2D902E000BF00E000BF2E4B93E88C
:10BA0000030003F023FA4FF4FA7003F031FB254BE7
:10BA10001B6826491846FCF7FBFB0346002B03D1A5
:10BA2000D7F86C01FDF782FEFEF79AFF01F01DB911
:10BA30002348FEF717FF0346012B40F03D8100230A
:10BA4000C7F8FC3007F5FC73A3F5807300221A6079
:10BA5000FEF77CFF07F1F80307F1FC0207F5FC7124
:10BA6000A1F5FA701749006809F01AFAC7F87001D1
:10BA7000D7F87031022B27D04FF0FF33172205493A
:10BA8000054807F0E1F801F0F5B800BF8C0100208F
:10BA9000788F0108008F0108A808002018000020F6
:10BAA000B802002014000020888F0108DC8E0108F5
:10BAB000CC0100208C8F0108480200206802002081
:10BAC000F4010020A08F01084FF4FA70FDF72EFE5C
:10BAD000C34B1B68C3491846FCF79AFB0346002B6F
:10BAE00040F0C880C04B93E8030003F0AFF9BF4BB0
:10BAF00093E8030003F0DAF94FF4967003F0B8FA14
:10BB000042F21C50FEF7B0F9B54B1B68B549184618
:10BB1000FCF77EFB0346002B40F0AC8007F5FC737E
:10BB2000A3F580731B6819460120FDF751FFAC4B4C
:10BB30001B68AC491846FCF76BFB0346002B40F032
:10BB400099800021AA4801F0CFFEAA4B93E8030098
:10BB500003F0ACF94FF4967003F08AFAA24B93E825
:10BB6000030003F073F9A14B93E8030003F09EF97F
:10BB70004FF4967003F07CFA0123C7F8E03147E0F8
:10BB800042F228310120FEF7B9F9954B1B6895491F
:10BB90001846FCF73DFB0346002B40D1C82003F0BC
:10BBA00067FA914B93E8030003F040F98F4B93E859
:10BBB000030003F07BF94FF4967003F059FA42F258
:10BBC0001C50FEF751F9864B1B6886491846FCF756
:10BBD0001FFB0346002B24D1814B1B68814918466B
:10BBE000FCF716FB0346002B1DD17F4B93E80300A7
:10BBF00003F02CF97D4B93E8030003F057F94FF461
:10BC0000967003F035FAD7F8E0310133C7F8E03128
:10BC1000D7F8E021D7F8FC309A42B1D904E000BF50
:10BC200002E000BF00E000BF714801F08BFE714BE5
:10BC300093E8030003F03AF94FF4967003F018FA12
:10BC4000674B1B6867491846FCF7E2FA0346002B6E
:10BC500003D14FF4FA70FDF769FD614B1B68614930
:10BC60001846FCF7D5FA0346002B03D142F21C50CC
:10BC7000FEF7FAF85A4B1B685A491846FCF7C8FAFF
:10BC80000346002B14D05A4801F05CFE594B93E850
:10BC9000030003F00BF94FF4967003F0E9F9524BEF
:10BCA00093E8030003F0D2F84FF4967003F0E0F944
:10BCB000FEF756FE00F0D9BF4F48FEF7D3FD03460E
:10BCC000012B40F0D78007F5FC73A3F582730022A7
:10BCD0001A6007F5FC73A3F5847300221A60FEF75F
:10BCE00035FE07F1F00307F1F40207F5FC71A1F549
:10BCF000FA704249006809F0D3F8C7F87801D7F81C
:10BD00007831022B08D04FF0FF3317223C493D48D1
:10BD100006F09AFF00F0AEBF334B93E8030003F048
:10BD200085F8324B93E8030003F0C0F84FF49670A7
:10BD300003F09EF90123C7F8DC3175E007F5FC73C9
:10BD4000A3F584731B6819460120FEF7D7F84FF45A
:10BD50007A7003F08DF9224B1B6822491846FCF7D4
:10BD600057FA0346002B5AD1D7F8DC2107F5FC73AC
:10BD7000A3F582731B689A4251D232210120FDF74C
:10BD800027FE174B1B6820491846FCF741FA03466B
:10BD9000002B3BD1D7F8DC31C7F874310123C7F849
:10BDA000D83115E032210020FDF712FE07F5FC73B3
:10BDB000A3F584731B6819460020FEF79FF84FF423
:10BDC0007A7003F055F9D7F8D8310133C7F8D83174
:10BDD000D7F8D821D7F874319A42E3DD2FE000BFBD
:10BDE00014000020DC8E01084802002068020020B8
:10BDF0003802002058020020FC010020B08F01080A
:10BE0000008F0108A8080020C08F0108CC4B1B68D8
:10BE1000CC491846FCF7FCF90346002B0ED1D7F8A5
:10BE2000DC310133C7F8DC31D7F8DC2107F5FC73CE
:10BE3000A3F582731B689A4280D900E000BFC04B13
:10BE40001B68C0491846FCF7E3F90346002B0DD0E8
:10BE5000BD4B93E8030002F0E9FFBC4B93E80300FD
:10BE600003F024F84FF4967003F002F9FEF778FD22
:10BE700000F0FBBEB648FEF7F5FC0346012B40F090
:10BE8000908007F5FC73A3F5867300221A6007F50E
:10BE9000FC73A3F5887300221A60FEF757FD07F1C3
:10BEA000E80307F1EC0207F5FC71A1F5FA70A94966
:10BEB000006808F0F5FFC7F87C01D7F87C31022B49
:10BEC00008D04FF0FF331722A349A44806F0BCFE68
:10BED00000F0D0BE07F5FC73A3F586731B68194606
:10BEE0000020FDF771FB964B1B6819469548FCF73F
:10BEF0008FF90346002B50D10021994801F0F4FC42
:10BF0000984B93E8030002F0D1FF4FF4967003F0D2
:10BF1000AFF80021944801F0E7FC924B93E803004E
:10BF200002F0C4FF07F5FC73A3F588731B6818467D
:10BF300002F0CCFE8C4801F005FD8A4B93E803002B
:10BF400002F0B4FF4FF47A7003F092F801218648B2
:10BF500001F0CAFC834B93E8030002F0A7FF6420C2
:10BF600002F0B4FE804801F0EDFC7E4B93E8030044
:10BF700002F09CFF642002F0A9FE794801F0E2FC87
:10BF8000784B93E8030002F091FF4FF4967003F0B2
:10BF90006FF84FF4FA70FDF7D5F9FEF7E1FC00F009
:10BFA00064BE7248FEF75EFC0346012B40F005813B
:10BFB00007F5FC73A3F58A7300221A6007F5FC737A
:10BFC000A3F58C7300221A6007F5FC73A3F58E733A
:10BFD00000221A600223C7F8D43107F5FC73A3F5D9
:10BFE000907300221A60FEF7B1FC07F1E00107F13F
:10BFF000E40207F5FC73A3F5FA7007F1D803019387
:10C0000007F1DC0300930B465949006808F048FF2C
:10C01000C7F88001D7F88031042B08D04FF0FF33E8
:10C0200017224D494D4806F00FFE00F023BE0123B4
:10C03000C7F8D03126E0D7F8D401FEF7B5FC07F5F4
:10C04000FC73A3F58C731B6819460020FDF7BCFA3E
:10C050003B4B1B6819463B48FCF7DAF80346002BBC
:10C060000BD107F5FC73A3F58E731B68184601F01E
:10C07000BDFC4FF4FA70FDF765F9D7F8D031013304
:10C08000C7F8D031D7F8D02107F5FC73A3F590732A
:10C090001B689A42CFD92A4B1B6819462948FCF7DE
:10C0A000B7F80346002B40F084806FE002224FF483
:10C0B00096710120FEF7EAFA214B1B6819462148C8
:10C0C000FCF7A6F80346002B72D10123C7F8CC3148
:10C0D0002BE007F5FC73A3F58C731B681946002051
:10C0E000FDF772FA164B1B6819461648FCF790F8D4
:10C0F0000346002B3ED107F5FC73A3F58E731B6836
:10C10000184601F073FC4FF4FA70FDF71BF90C4B65
:10C110001B6819460B48FCF77BF80346002B2BD114
:10C12000D7F8CC310133C7F8CC31D7F8CC2107F59B
:10C13000FC73A3F590731B689A42CAD91DE000BF37
:10C1400014000020DC8E0108480200206802002054
:10C1500004020020C48F0108008F0108A8080020F5
:10C1600038020020580200202802002094010020FC
:10C17000D48F010800BF00E000BFD7F8D4310133ED
:10C18000C7F8D431D7F8D401FEF70EFC07F5FC73DD
:10C19000A3F58A731B68012B0BD907F5FC73A3F574
:10C1A0008A731B68D7F8D4219A427FF67FAF00E0EC
:10C1B00000BFFEF7D5FB00F058BDCA48FEF752FBA2
:10C1C0000346012B2CD107F5FC73A3F592730022D3
:10C1D0001A60FEF7BBFB07F1D40207F5FC73A3F569
:10C1E000FA73C149186808F05BFEC7F88401D7F8F4
:10C1F0008431012B08D04FF0FF331722BB49BC48D4
:10C2000006F022FD00F036BD07F5FC73A3F592732E
:10C210001B681846FDF78AFAFEF7A2FB00F025BD61
:10C22000B448FEF71FFB0346012B2CD107F5FC7326
:10C23000A3F5947300221A60FEF788FB07F1D00281
:10C2400007F5FC73A3F5FA73AB49186808F028FEEC
:10C25000C7F88801D7F88831012B08D04FF0FF3399
:10C260001722A249A24806F0EFFC00F003BD07F533
:10C27000FC73A3F594731B681846FDF7FDFAFEF7EF
:10C280006FFB00F0F2BC9D48FEF7ECFA0346012B71
:10C290002CD107F5FC73A3F5967300221A60FEF704
:10C2A00055FB07F1CC0207F5FC73A3F5FA7394492B
:10C2B000186808F0F5FDC7F88C01D7F88C31012B10
:10C2C00008D04FF0FF3317228849894806F0BCFC9C
:10C2D00000F0D0BC07F5FC73A3F596731B681846F5
:10C2E000FDF7CEF8FEF73CFB00F0BFBC8548FEF73B
:10C2F000B9FA0346012B3BD107F5FC73A3F59873FC
:10C3000000221A6007F5FC73A3F59A7300221A60E5
:10C31000FEF71CFB07F1C40307F1C80207F5FC7127
:10C32000A1F5FA707849006808F0BAFDC7F89001E5
:10C33000D7F89031022B08D04FF0FF3317226B490A
:10C340006B4806F081FC00F095BC07F5FC73A3F583
:10C3500098731B681A4607F5FC73A3F59A731B685C
:10C3600019461046FDF734FBFEF7FAFA00F07DBCE3
:10C370006648FEF777FA0346012B2CD107F5FC73CC
:10C38000A3F59C7300221A60FEF7E0FA07F1C002E1
:10C3900007F5FC73A3F5FA735D49186808F080FD92
:10C3A000C7F89401D7F89431012B08D04FF0FF3330
:10C3B00017224E494E4806F047FC00F05BBC07F5DB
:10C3C000FC73A3F59C731B681846FDF74DFDFEF743
:10C3D000C7FA00F04ABC4F48FEF744FA0346012B67
:10C3E0003BD107F5FC73A3F59E7300221A6007F595
:10C3F000FC73A3F5A07300221A60FEF7A7FA07F1F9
:10C40000B80307F1BC0207F5FC71A1F5FA704249C7
:10C41000006808F045FDC7F89801D7F89831022B5D
:10C4200008D04FF0FF3317223049314806F00CFC9A
:10C4300000F020BC07F5FC73A3F59E731B681A4639
:10C4400007F5FC73A3F5A0731B6819461046FDF7AA
:10C4500055FDFEF785FA00F008BC3048FEF702FAF9
:10C460000346012B62D10123C7F8A03107F5FC7305
:10C47000A3F5A27300221A60FEF768FA07F1B4026E
:10C4800007F5FC73A3F5FA732549186808F008FD51
:10C49000C7F89C01D7F89C31012B07D04FF0FF3330
:10C4A00017221249124806F0CFFBE3E31D4B93E835
:10C4B000030002F0BBFC1C4B93E8030002F0F6FC07
:10C4C0004FF4FA7002F0D4FDD7F8A02107F5FC7301
:10C4D000A3F5A2731B6819461046FDF70FFDFEF782
:10C4E0003FFAC2E3A8010020E88F0108008F01088D
:10C4F000A8080020C0010020F48F01089C01002042
:10C5000000900108B40100200C900108D401002023
:10C510001C900108DC01002028900108E4010020A3
:10C52000389001084802002068020020D048FEF739
:10C5300099F90346012B39D107F5FC73A3F5A473D0
:10C5400000221A6007F5FC73A3F5A67300221A6097
:10C55000FEF7FCF907F1B00307F1AC0207F5FC7137
:10C56000A1F5FA70C349006808F09AFCC7F8A40165
:10C57000D7F8A431022B07D04FF0FF331722BE4962
:10C58000BE4806F061FB75E307F5FC73A3F5A673DF
:10C590001B681A4607F5FC73A3F5A4731B681946BC
:10C5A0001046FDF769FDFEF7DBF95EE3B448FEF7E0
:10C5B00059F90346012B48D107F5FC73A3F5A8737D
:10C5C00000221A6007F5FC73A3F5AA7300221A6013
:10C5D00007F5FC73A3F5AC7300221A60FEF7B6F9F9
:10C5E00007F1A40107F1A80207F5FC73A3F5FA709F
:10C5F00007F1A00300930B46A249006808F050FC25
:10C60000C7F8A801D7F8A831032B07D04FF0FF33A4
:10C6100017229949994806F017FB2BE307F5FC739D
:10C62000A3F5A8731B68184607F5FC73A3F5AA7356
:10C630001B68194607F5FC73A3F5AC731B681A4613
:10C64000FDF7DCFEFEF78CF90FE38F48FEF70AF9E1
:10C650000346012B28D1FEF779F9FCF719FDC7F83D
:10C66000B001D7F8B03107EE903AB8EE677ADFED57
:10C67000876AC7EE267AC7ED6B7AD7F8AC01FBF76D
:10C6800093FF02460B4607F10C00814908F0E6FBD8
:10C6900007F10C03184602F0FFFA4FF4FA7002F0AB
:10C6A000E7FCFEF75DF9E0E27A48FEF7DBF80346C7
:10C6B000012B5DD107F5FC73A3F5AE7300221A6060
:10C6C00007F5FC73A3F5B07300221A600023C7F8C6
:10C6D000BC31FEF73BF907F1980307F19C0207F51F
:10C6E000FC71A1F5FA706C49006808F0D9FBC7F835
:10C6F000B801D7F8B831022B07D04FF0FF3317221B
:10C700005D495E4806F0A0FAB4E2FCF7B9FCC7F850
:10C71000BC0107F5FC73A3F5AE731B681946012035
:10C72000FDF756F95D4B1B685D491846FBF770FD38
:10C730000346002B07D107F5FC73A3F5B0731B6804
:10C740001846FCF701FD554B1B6855491846FBF789
:10C750005FFD0346002B08D11423C7F8B431D7F886
:10C76000B43119460120FDF733F9FEF7F9F87CE200
:10C770004C48FEF777F80346012B40F09D8007F503
:10C78000FC73A3F5B27300221A604FF00003C7F8E0
:10C79000C431FEF7DBF807F1940207F5FC73A3F54B
:10C7A000FA734149186808F07BFBC7F8C00107F528
:10C7B000FC73A3F5B27307221A60D7F8C031012BBE
:10C7C00006D0642317222C492C4806F03DFA51E28A
:10C7D000902000F065FC0346002B42D007F5FC7367
:10C7E000A3F5B2731B68184600F04AFD87ED710A85
:10C7F000D7ED717AB7EE007AF4EEC77AF1EE10FA5F
:10C8000008D9D7ED717AB1EE007AF4EEC77AF1EE7D
:10C8100010FA15DB254BC7F8C431D7F8C401FBF774
:10C82000C3FE02460B4607F10C00214908F016FB37
:10C8300007F10C03184602F02FFAFEF791F819E2FF
:10C84000D7F8C401FBF7B0FE02460B4607F10C0017
:10C85000174908F003FB07F10C03184602F01CFA15
:10C8600002E00E4B134A1A60FEF77AF8FDE100BFB2
:10C870006401002044900108008F0108A8080020EE
:10C880006C010020549001088400002000247449A9
:10C8900064900108EC0100206C9001081400002055
:10C8A000DC8E01080C0200207C90010866661E41A7
:10C8B0008890010890900108AD48FDF7D3FF03462A
:10C8C000012B40F0CD8107F5FC73A3F5B473002272
:10C8D0001A6007F5FC73A3F5B6734FF000021A60F7
:10C8E000002387F8CB31FEF731F807F18C0307F10D
:10C8F000900207F5FC71A1F5FA709E49006808F0F6
:10C90000CFFA07F5FC73A3F5B47307221A6007F595
:10C91000FC73A3F5B673D3ED007AB0EE670A00F0AE
:10C9200031FD034687F8CB3107F5FC73A3F5B473EB
:10C930001B68013B062B00F2298101A252F823F06B
:10C940005DC90008A9C90008F5C9000841CA000866
:10C950008DCA0008D9CA000825CB00080122202171
:10C96000854800F09FFD97F8CB31002229218348AC
:10C9700000F0DAFC0346002B02D0814B814A1A609A
:10C9800097F8CB319BB2002229217C4800F03EFD74
:10C990000346002B02D07A4B7A4A1A6000222021EB
:10C9A000754800F07FFDF2E001222021724800F07E
:10C9B00079FD97F8CB3101222921704800F0B4FCB1
:10C9C0000346002B02D06E4B6E4A1A6097F8CB31AB
:10C9D0009BB201222921694800F018FD0346002B73
:10C9E00002D0674B674A1A6000222021624800F09B
:10C9F00059FDCCE0012210215F4800F053FD97F86B
:10CA0000CB3100222B215D4800F08EFC0346002B29
:10CA100002D05B4B5B4A1A6097F8CB319BB2002285
:10CA20002B21564800F0F2FC0346002B02D0544B59
:10CA3000544A1A60002210214F4800F033FDA6E04E
:10CA4000012210214C4800F02DFD97F8CB31012236
:10CA50002B214A4800F068FC0346002B02D0484BCB
:10CA6000484A1A6097F8CB319BB201222B214348E8
:10CA700000F0CCFC0346002B02D0414B414A1A6027
:10CA8000002210213C4800F00DFD80E001224021F1
:10CA90003D4800F007FD97F8CB3100222D213748A3
:10CAA00000F042FC0346002B02D0354B354A1A6099
:10CAB00097F8CB319BB200222D21304800F0A6FC24
:10CAC0000346002B02D02E4B2E4A1A600022402132
:10CAD0002D4800F0E7FC5AE0012240212A4800F0EE
:10CAE000E1FC97F8CB3101222D21244800F01CFCF9
:10CAF0000346002B02D0224B224A1A6097F8CB3112
:10CB00009BB201222D211D4800F080FC0346002B22
:10CB100002D01B4B1B4A1A60002240211A4800F029
:10CB2000C1FC34E001222021174800F0BBFC97F83B
:10CB3000CB3100222F21114800F0F6FB0346002BD9
:10CB400002D00F4B0F4A1A6097F8CB319BB20022EC
:10CB50002F210A4800F05AFC0346002B02D0084B54
:10CB6000084A1A6000222021074800F09BFC0EE0D2
:10CB70001402002094900108000402407405002073
:10CB800014000020A4900108000C024000BF3B4BA1
:10CB90001B683B491846FBF73BFB0346002B5AD169
:10CBA00007F5FC73A3F5B4731B68184600F068FB27
:10CBB000F0EE407A07F5FC73A3F5B673C3ED007A87
:10CBC00007F5FC73A3F5B673D3ED007AB7EE007AE0
:10CBD000F4EEC77AF1EE10FA0CD907F5FC73A3F561
:10CBE000B673D3ED007AB1EE007AF4EEC77AF1EEC7
:10CBF00010FA1CDB07F5FC73A3F5B673214A1A6023
:10CC000007F5FC73A3F5B6731B681846FBF7CCFC5D
:10CC100002460B4607F10C001B4908F01FF907F10B
:10CC20000C03184602F038F8FDF79AFE22E007F5EB
:10CC3000FC73A3F5B6731B681846FBF7B5FC0246F8
:10CC40000B4607F10C00114908F008F907F10C0335
:10CC5000184602F021F800F03DFCFDF781FE04E0EB
:10CC6000FDF774FE572002F005F801220849094833
:10CC700006F075F807F5FC77BD4680BD140000206E
:10CC8000DC8E010866661E4188900108A8900108A4
:10CC9000F4040020A808002080B58AB000AF07F196
:10CCA000140300221A605A609A60DA601A61002345
:10CCB0003B61964B1B6B954A43F010031363934BF8
:10CCC0001B6B03F010033B613B690023FB608F4B40
:10CCD0001B6B8E4A43F0040313638C4B1B6B03F0F6
:10CCE0000403FB60FB680023BB60884B1B6B874A17
:10CCF00043F001031363854B1B6B03F00103BB601F
:10CD0000BB6800237B60814B1B6B804A43F00203AE
:10CD100013637E4B1B6B03F002037B607B68002375
:10CD20003B607A4B1B6B794A43F008031363774BE4
:10CD30001B6B03F008033B603B6800224BF61F713E
:10CD4000734802F0FDFD002246F23F01714802F0F7
:10CD5000F7FD0022F921704802F0F2FD002243F2B3
:10CD600033016E4802F0ECFD002242F660416C484F
:10CD700002F0E6FD4BF61F737B610123BB610023CC
:10CD8000FB6100233B6207F114031946604802F07F
:10CD900037FB40237B614FF48813BB610223FB61A7
:10CDA00007F1140319465A4802F02AFB46F23F03E2
:10CDB0007B610123BB610023FB6100233B6207F120
:10CDC00014031946534802F01BFB4FF400437B61E8
:10CDD0000023BB610023FB6107F1140319464D4892
:10CDE00002F00EFBF9237B610123BB610023FB6191
:10CDF00000233B6207F114031946474802F000FB89
:10CE000043F233037B610123BB610023FB610023F9
:10CE10003B6207F114031946404802F0F1FA4FF45F
:10CE200080437B610023BB610123FB6107F1140395
:10CE30001946374802F0E4FA42F660437B61012369
:10CE4000BB610023FB6100233B6207F11403194619
:10CE5000334802F0D5FA49F203037B610023BB613A
:10CE60000223FB6107F1140319462D4802F0C8FAAA
:10CE700040237B610223BB610023FB6100233B62F3
:10CE800003237B6207F114031946224802F0B8FA23
:10CE90004FF460737B610023BB610223FB6107F1E8
:10CEA000140319461B4802F0ABFA4FF419437B6197
:10CEB0000023BB610023FB6107F1140319461648E8
:10CEC00002F09EFA98237B610023BB610023FB6183
:10CED00007F114031946124802F092FAC0237B614D
:10CEE0000023BB610023FB6107F1140319460B48C3
:10CEF00002F086FA00220021172002F0B8F917206C
:10CF000002F0D1F900BF2837BD4680BD003802408D
:10CF100000100240000802400000024000040240ED
:10CF2000000C024080B500AF124B134A1A60114B3F
:10CF3000124A5A600F4B00229A600E4B0022DA60B0
:10CF40000C4B4FF480421A610A4B00225A61094B84
:10CF500000229A61074B0022DA61064B00221A6216
:10CF6000044802F02BFD0346002B01D000F0B6FC74
:10CF700000BF80BD7405002000580040801A0600E4
:10CF800080B58AB000AF786007F1140300221A6000
:10CF90005A609A60DA601A617B681B68294A93427A
:10CFA0004BD100233B61284B1B6B274A43F0020304
:10CFB0001363254B1B6B03F002033B613B690023AA
:10CFC000FB60214B1B6B204A43F0040313631E4B91
:10CFD0001B6B03F00403FB60FB684FF480637B6111
:10CFE0001223BB610023FB6103233B6204237B62AA
:10CFF00007F114031946154802F002FA4FF4805362
:10D000007B611223BB610023FB6103233B6204238A
:10D010007B6207F1140319460D4802F0F1F9002371
:10D02000BB60094B1B6C084A43F480031364064B36
:10D030001B6C03F48003BB60BB6800BF2837BD4690
:10D0400080BD00BF0058004000380240000402408C
:10D050000008024080B582B000AF78607B681B6832
:10D060000B4A93420FD10B4B1B6C0A4A23F48003EB
:10D0700013644FF48061084802F056FB4FF480516E
:10D08000064802F051FB00BF0837BD4680BD00BF17
:10D0900000580040003802400004024000080240EE
:10D0A00080B582B000AF0346FB71FB792C2B0DD10C
:10D0B000FB7999B2642303220F4803F023F9034656
:10D0C000002B01D1012313E0002311E0FB79902B09
:10D0D0000DD1FB7999B264230322074803F012F9BA
:10D0E0000346002B01D1012302E0002300E00023CE
:10D0F00018460837BD4680BD7405002080B586B04F
:10D1000002AF0346FB71FB79072B02D94FF6FF7381
:10D1100048E000237B737B7B63F07F03DBB27B7390
:10D1200097F907301B015BB203F070035AB27B7BA7
:10D130005BB213435BB2DBB27B737B7B43F00803D0
:10D14000DBB27B737B7B43F00303DBB27B7307F1C2
:10D150000D026423009301239021144802F0A2FDE4
:10D160000346002B02D04FF6FF731BE0012001F0B5
:10D170007FFF07F1080264230093022390210B48EC
:10D1800002F08EFE0346002B02D04FF6FF7309E03B
:10D190003B7A1BB21B021AB27B7A1BB213431BB23F
:10D1A000FB81FB8918461037BD4680BD7405002001
:10D1B00080B584B000AF0346FB80FB8807EE903A51
:10D1C000B8EE677ADFED1B6AC7EE267AC7ED027A02
:10D1D000D7ED027A9FED187A67EE877AB0EE670A8C
:10D1E0000BF022FEB0EE407ADFED136AC7EE267A2E
:10D1F000C7ED037AD7ED037A9FED107AF4EEC77A84
:10D20000F1EE10FA02D54FF00043FB60D7ED037A40
:10D21000B1EE007AF4EEC77AF1EE10FA01DD084BB8
:10D22000FB60FB6807EE903AB0EE670A1037BD4628
:10D2300080BD00BF00007A440000C8426666663FB9
:10D240000000A0C080B584B000AF0346FB71FB793D
:10D250001846FFF753FF0346FB81FB894FF6FF7229
:10D26000934202D1FFEE007A05E0FB891846FFF7F2
:10D270009FFFF0EE407AB0EE670A1037BD4680BDE2
:10D2800080B582B000AF78607B68013B072B43D844
:10D2900001A252F823F000BFB9D20008C5D200089D
:10D2A000D1D20008DDD20008E9D20008F5D200088A
:10D2B00001D300080DD300080020FFF7C3FFF0EEF4
:10D2C000407A2BE00420FFF7BDFFF0EE407A25E026
:10D2D0000120FFF7B7FFF0EE407A1FE00520FFF7CF
:10D2E000B1FFF0EE407A19E00220FFF7ABFFF0EE5D
:10D2F000407A13E00620FFF7A5FFF0EE407A0DE03C
:10D300000320FFF79FFFF0EE407A07E00720FFF7CA
:10D3100099FFF0EE407A01E0FFEE007AB0EE670A86
:10D320000837BD4680BD00BF80B586B002AF7860CB
:10D33000084611461A460346FB700B46BB7013465F
:10D340007B70BB78002B14BF01230023DBB2FB737F
:10D35000FB7B1B01BB73BB7B3B727B787B72FB78D7
:10D360009BB25B0099B207F1080264230093022389
:10D37000786802F097FC03467B737B7B1846103776
:10D38000BD4680BD80B594B000AF87ED010AD7EDF2
:10D39000017A9FED1B7AF4EEC77AF1EE10FA01D80C
:10D3A000002329E0D7ED017AB1EE047AF4EEC77AD2
:10D3B000F1EE10FA01DB26231EE0D7ED017A9FED96
:10D3C000107A77EEC77A9FED0F7A27EE877ADFED36
:10D3D0000E6AC7EE267AC7ED137A97ED130A0BF0A3
:10D3E00023FDF0EE407AFCEEE77AC7ED007A3B7859
:10D3F00087F84B3097F84B3018465037BD4680BD04
:10D40000EC51383F00001842C2F5884080B596B014
:10D4100002AF7860084611461A460346FB700B4679
:10D42000BB7013463B80012220211D4800F03AF8D2
:10D430003B88C3F308033B80BB7803F00103DBB2F6
:10D44000023387F84F3097F94F301B015AB23B88AF
:10D450001B0A9BB25BB203F001035BB213435BB2E6
:10D46000DBB287F84C303B88DBB287F84D30FB7875
:10D470009BB25B0099B207F14C024FF47A730093B0
:10D480000223786802F00EFC034687F84E300F2026
:10D4900001F0EEFD97F84E3018465037BD4680BD7E
:10D4A0000004024080B582B000AF78600B467B80FC
:10D4B00013467B707B78002B14BF01230023DBB263
:10D4C0001A467B881946786802F03AFA00BF083796
:10D4D000BD4680BD80B588B000AF07F108030022CB
:10D4E0001A605A609A60DA601A613A4802F0AAFB40
:10D4F00000237B60384B1B6B374A43F002031363F6
:10D50000354B1B6B03F002037B607B681123FB60D0
:10D5100000233B6102237B614FF48063BB6007F112
:10D52000080319462D4801F06BFF4FF48053BB6090
:10D5300007F1080319462A4801F062FF0023FB6146
:10D5400014E001224FF48061244802F0F9F901202F
:10D5500001F08EFD00224FF48061204802F0F0F9C6
:10D56000012001F085FDFB690133FB61FB69082B9C
:10D57000E7DD00224FF48051194802F0E1F9012063
:10D5800001F076FD01224FF48061144802F0D8F9D1
:10D59000012001F06DFD01224FF48051104802F08E
:10D5A000CFF9012001F064FD0B4B1B6A0A4A43F4DA
:10D5B00080031362022001F05BFD074B1B6A064AE1
:10D5C00023F480031362FFF7ADFC00BF2037BD4694
:10D5D00080BD00BF740500200038024000040240F6
:10D5E0000008024080B500AF01F0D0FC00F00AF95D
:10D5F000FFF752FBFFF796FC00F0A2FC00F016FDCF
:10D6000000F076FD00F0C2FD00F00EFE00F07AFEA4
:10D6100001F0ECF901F014FA01F03CFA00F042FCE0
:10D6200000F0EAFB01221021674802F089F9674BFC
:10D6300093E8030001F03AFC00220221624802F064
:10D640007FF900220421604802F07AF900220821C3
:10D650005D4802F075F900224FF400715C4802F059
:10D660006FF900224FF48071594802F069F90022E5
:10D670008021574802F064F900220221554802F047
:10D680005FF900220121534802F05AF900224FF4B9
:10D6900080514F4802F054F900224FF400614C4889
:10D6A00002F04EF900224FF48061494802F048F937
:10D6B00000224FF40051464802F042F900224FF494
:10D6C0000041434802F03CF9002220213E4802F08C
:10D6D00037F900228021404802F032F9002240212F
:10D6E0003D4802F02DF9002220213B4802F028F9A4
:10D6F00000221021384802F023F900220821364880
:10D7000002F01EF900220121334802F019F900222B
:10D710002021304802F014F9002210212D4802F097
:10D720000FF9002240212D4802F00AF900222021A1
:10D730002A4802F005F92A4B93E8030001F0B6FBF2
:10D74000284B93E8030001F0B1FB204B93E8030062
:10D7500001F0ACFB012201211D4802F0F1F8642325
:10D7600010222149214805F06FFA012220491F4863
:10D7700005F0F5FA1F4B93E8030001F087FB134B0C
:10D7800093E8030001F092FB1B4B93E8030001F0C8
:10D790007DFB0E4B93E8030001F088FB174B93E8E9
:10D7A000030001F063FB094B93E8030001F07EFBEB
:10D7B0000A2001F05DFC01F04FFC0346104A1360A3
:10D7C000FDF73EF8FCE700BF0008024068020020B9
:10D7D000001002400004024000000240000C024021
:10D7E0005802002060020020B8900108A80800201C
:10D7F000F4040020D0020020D8020020C80200203B
:10D800007005002080B594B000AF07F11C033422EE
:10D810000021184607F04AFC07F1080300221A60AD
:10D820005A609A60DA601A6100237B60294B1B6C96
:10D83000284A43F080531364264B1B6C03F080533B
:10D840007B607B6800233B60234B1B6823F44043D1
:10D85000214A43F4804313601F4B1B6803F4404389
:10D860003B603B680223FB610123BB621023FB6228
:10D8700002237B630023BB630823FB6354233B64C5
:10D8800002237B640223BB640223FB6407F11C03B5
:10D89000184603F0AFFC0346002B01D000F01EF841
:10D8A0000F23BB600223FB6000233B614FF48053D6
:10D8B0007B610023BB6107F108030221184603F0D6
:10D8C000D5F90346002B01D000F008F800BF50370F
:10D8D000BD4680BD003802400070004080B400AFFB
:10D8E00072B600BF00BFFDE780B582B000AF7860C0
:10D8F0000B46FB70FB78002B10D17B6818687B68A7
:10D900009B880122194602F01BF87B6898687B68A7
:10D910009B890022194602F013F80FE07B68186813
:10D920007B689B880022194602F00AF87B68986899
:10D930007B689B890122194602F002F800BF083774
:10D94000BD4680BD80B582B000AF78607B68186846
:10D950007B689B880022194601F0F2FF7B6898687B
:10D960007B689B890022194601F0EAFF00BF083757
:10D97000BD4680BD80B582B000AF786000211948F7
:10D98000FFF7B2FF184B93E8030001F08FFA7868B5
:10D9900001F09CF91348FFF7D5FF134B93E8030000
:10D9A00001F084FA4FF47A7001F062FB01210D4816
:10D9B000FFF79AFF0C4B93E8030001F077FA64201D
:10D9C00001F084F90748FFF7BDFF074B93E8030018
:10D9D00001F06CFA4FF4967001F04AFB00BF083773
:10D9E000BD4680BD280200205802002080B582B0CC
:10D9F00000AF7860164B93E8030001F017FA4FF47C
:10DA0000967001F035FB00211248FFF76DFF124BB5
:10DA100093E8030001F04AFA786801F029FB0D4809
:10DA2000FFF790FF0C4B93E8030001F03FFA4FF42F
:10DA3000967001F01DFB064B93E8030001F006FA17
:10DA4000642001F015FB00BF0837BD4680BD00BF54
:10DA500050020020380200205802002080B582B019
:10DA600000AF3B4683E803003B68BA88114618467E
:10DA700001F04EFF0346002B0CBF01230023DBB255
:10DA800018460837BD4680BD80B582B000AF03465A
:10DA9000FB71FB79012B02D0022B0CD01AE00F4B4B
:10DAA00093E80300FFF7DAFF0346002B0FD14D2068
:10DAB00001F0E0F80BE00A4B93E80300FFF7CEFF1C
:10DAC0000346002B05D14D2001F0D4F801E000BF42
:10DAD00000E000BF0837BD4680BD00BFB80200208F
