:020000040800F2
:1080000000000220B5EF0008B1DB0008B9DB000872
:10801000C1DB0008C9DB0008D1DB0008000000005C
:10802000000000000000000000000000D9DB000894
:10803000E7DB000800000000F5DB000803DC0008B7
:1080400005F0000805F0000805F0000805F000083C
:1080500005F0000805F0000805F0000805F000082C
:1080600005F0000805F0000805F0000805F000081C
:1080700005F0000805F0000805F0000805F000080C
:1080800005F0000805F0000805F0000805F00008FC
:1080900005F0000805F0000805F000080FDC0008F6
:1080A0001DDC000831DC000845DC000805F0000894
:1080B00005F0000859DC000805F0000805F000088C
:1080C00005F0000805F0000805F0000805F00008BC
:1080D00005F000086DDC000805F0000881DC0008F0
:1080E00005F0000805F0000805F0000895DC000820
:1080F00005F0000805F0000805F0000805F000088C
:1081000005F0000805F00008A9DC000805F00008EB
:1081100005F0000805F0000805F0000805F000086B
:1081200005F0000805F0000805F0000805F000085B
:1081300005F00008000000000000000005F0000845
:1081400005F0000805F0000805F0000805F000083B
:1081500005F0000805F0000805F0000805F000082B
:1081600005F0000805F0000805F0000805F000081B
:1081700005F0000805F0000805F000080000000008
:108180000000000005F000080000000000000000F2
:1081900005F00008000000000000000005F00008E5
:1081A00000000000000000000000000005F00008D2
:1081B00005F0000805F0000805F0000805F00008CB
:0481C00005F00008BE
:1081D00010B5054C237833B9044B13B10448AFF301
:1081E00000800123237010BDC004002000000000A7
:1081F000F08E010808B5034B1BB103490348AFF3E8
:10820000008008BD00000000C4040020F08E0108BA
:1082100010F8012B11F8013B012A28BF9A42F7D030
:10822000D01A7047000000000000000000000000AD
:1082300001F0FF01102A2BDB10F0070F08D010F817
:10824000013B013A8B422DD010F0070F42B3F6D11B
:10825000F0B441EA012141EA014122F007047FF034
:1082600000070023F0E80256083C85EA010586EA8B
:10827000010685FA47F5A3FA87F586FA47F6A5FAC7
:1082800087F68EB9EED1F0BC01F0FF0102F00702D3
:1082900032B110F8013B013A83EA010313B1F8D17E
:1082A0000020704701387047002D06BF354603385F
:1082B000073815F0010F07D1013015F4807F02BF98
:1082C000013015F4C03F0130F0BC0138704700BFE9
:1082D000034613F8012B002AFBD1181A0138704706
:1082E00081F0004102E000BF83F0004330B54FEA67
:1082F00041044FEA430594EA050F08BF90EA020FD4
:108300001FBF54EA000C55EA020C7FEA645C7FEA66
:10831000655C00F0E2804FEA5454D4EB5555B8BF89
:108320006D420CDD2C4480EA020281EA030382EAFA
:10833000000083EA010180EA020281EA0303362D8C
:1083400088BF30BD11F0004F4FEA01314FF4801C5F
:108350004CEA113102D0404261EB410113F0004F71
:108360004FEA03334CEA133302D0524263EB430328
:1083700094EA050F00F0A780A4F10104D5F1200EC6
:108380000DDB02FA0EFC22FA05F2801841F1000121
:1083900003FA0EF2801843FA05F359410EE0A5F1F5
:1083A00020050EF1200E012A03FA0EFC28BF4CF026
:1083B000020C43FA05F3C01851EBE37101F00045DC
:1083C00007D54FF0000EDCF1000C7EEB00006EEBE9
:1083D0000101B1F5801F1BD3B1F5001F0CD3490873
:1083E0005FEA30004FEA3C0C04F101044FEA4452CA
:1083F00012F5800F80F09A80BCF1004F08BF5FEA51
:10840000500C50F1000041EB045141EA050130BD30
:108410005FEA4C0C404141EB0101013C28BFB1F542
:10842000801FE9D291F0000F04BF01460020B1FA8D
:1084300081F308BF2033A3F10B03B3F120020CDA60
:108440000C3208DD02F1140CC2F10C0201FA0CF03E
:1084500021FA02F10CE002F11402D8BFC2F1200CA3
:1084600001FA02F120FA0CFCDCBF41EA0C01904059
:10847000E41AA2BF01EB0451294330BD6FEA0404A2
:108480001F3C1CDA0C340EDC04F11404C4F120028D
:1084900020FA04F001FA02F340EA030021FA04F39F
:1084A00045EA030130BDC4F10C04C4F1200220FAF6
:1084B00002F001FA04F340EA0300294630BD21FA34
:1084C00004F0294630BD94F0000F83F4801306BFFA
:1084D00081F480110134013D4EE77FEA645C18BFEE
:1084E0007FEA655C29D094EA050F08BF90EA020F85
:1084F00005D054EA000C04BF1946104630BD91EA7D
:10850000030F1EBF0021002030BD5FEA545C05D17F
:108510004000494128BF41F0004130BD14F58004BE
:108520003CBF01F5801130BD01F0004545F0FE4132
:1085300041F470014FF0000030BD7FEA645C1ABF67
:10854000194610467FEA655C1CBF0B46024650EA9E
:10855000013406BF52EA033591EA030F41F40021CA
:1085600030BD00BF90F0000F04BF0021704730B550
:108570004FF4806404F132044FF000054FF0000125
:1085800050E700BF90F0000F04BF0021704730B5E6
:108590004FF4806404F1320410F0004548BF4042BB
:1085A0004FF000013EE700BF42004FEAE2014FEA10
:1085B00031014FEA02701FBF12F07F4393F07F4FEB
:1085C00081F06051704732F07F4208BF704793F0EE
:1085D0007F4F04BF41F40021704730B54FF4607401
:1085E00001F0004521F000411CE700BF50EA010204
:1085F00008BF704730B54FF000050AE050EA0102AD
:1086000008BF704730B511F0004502D5404261EB1C
:1086100041014FF4806404F132045FEA915C3FF45D
:10862000D8AE4FF003025FEADC0C18BF03325FEAFA
:10863000DC0C18BF033202EBDC02C2F1200300FAAB
:1086400003FC20FA02F001FA03FE40EA0E0021FAD0
:1086500002F11444BDE600BF70B54FF0FF0C4CF4BE
:10866000E06C1CEA11541DBF1CEA135594EA0C0F70
:1086700095EA0C0F00F0DEF82C4481EA030621EAAB
:108680004C5123EA4C5350EA013518BF52EA0335E6
:1086900041F4801143F4801338D0A0FB02CE4FF098
:1086A0000005E1FB02E506F00042E0FB03E54FF0C8
:1086B0000006E1FB03569CF0000F18BF4EF0010EC0
:1086C000A4F1FF04B6F5007F64F5407404D25FEABC
:1086D0004E0E6D4146EB060642EAC62141EA55516F
:1086E0004FEAC52040EA5E504FEACE2EB4F1FD0CB1
:1086F00088BFBCF5E06F1ED8BEF1004F08BF5FEA2F
:10870000500E50F1000041EB045170BD06F00046E0
:1087100046EA010140EA020081EA0301B4EB5C048D
:10872000C2BFD4EB0C0541EA045170BD41F4801185
:108730004FF0000E013C00F3AB8014F1360FDEBFAA
:10874000002001F0004170BDC4F10004203C35DA86
:108750000C341BDC04F11404C4F1200500FA05F309
:1087600020FA04F001FA05F240EA020001F00042AA
:1087700021F0004110EBD37021FA04F642EB060120
:108780005EEA430E08BF20EAD37070BDC4F10C044A
:10879000C4F1200500FA04F320FA05F001FA04F20E
:1087A00040EA020001F0004110EBD37041F10001FA
:1087B0005EEA430E08BF20EAD37070BDC4F1200505
:1087C00000FA05F24EEA020E20FA04F301FA05F26D
:1087D00043EA020321FA04F001F0004121FA04F215
:1087E00020EA020000EBD3705EEA430E08BF20EAE5
:1087F000D37070BD94F0000F0FD101F0004640001F
:1088000041EB010111F4801F08BF013CF7D041EAA0
:10881000060195F0000F18BF704703F000465200A4
:1088200043EB030313F4801F08BF013DF7D043EA75
:108830000603704794EA0C0F0CEA135518BF95EA2B
:108840000C0F0CD050EA410618BF52EA4306D1D1B2
:1088500081EA030101F000414FF0000070BD50EAD1
:10886000410606BF1046194652EA430619D094EA5B
:108870000C0F02D150EA013613D195EA0C0F05D145
:1088800052EA03361CBF104619460AD181EA030199
:1088900001F0004141F0FE4141F470014FF0000051
:1088A00070BD41F0FE4141F4780170BD70B54FF0EC
:1088B000FF0C4CF4E06C1CEA11541DBF1CEA13556C
:1088C00094EA0C0F95EA0C0F00F0A7F8A4EB05044E
:1088D00081EA030E52EA03354FEA013100F0888045
:1088E0004FEA03334FF0805545EA131343EA12630E
:1088F0004FEA022245EA111545EA10654FEA0026C3
:108900000EF000419D4208BF964244F1FD0404F57B
:10891000407402D25B084FEA3202B61A65EB0305D7
:108920005B084FEA32024FF480104FF4002CB6EB94
:10893000020E75EB030E22BFB61A754640EA0C0014
:108940005B084FEA3202B6EB020E75EB030E22BF54
:10895000B61A754640EA5C005B084FEA3202B6EB95
:10896000020E75EB030E22BFB61A754640EA9C0054
:108970005B084FEA3202B6EB020E75EB030E22BF24
:10898000B61A754640EADC0055EA060E18D04FEAE2
:10899000051545EA16754FEA06164FEAC30343EA82
:1089A00052734FEAC2025FEA1C1CC0D111F4801F4F
:1089B0000BD141EA00014FF000004FF0004CB6E748
:1089C00011F4801F04BF01430020B4F1FD0C88BFE7
:1089D000BCF5E06F3FF6AFAEB5EB030C04BFB6EBF2
:1089E000020C5FEA500C50F1000041EB045170BDE5
:1089F0000EF0004E4EEA113114EB5C04C2BFD4EB12
:108A00000C0541EA045170BD41F480114FF0000E95
:108A1000013C90E645EA060E8DE60CEA135594EA11
:108A20000C0F08BF95EA0C0F3FF43BAF94EA0C0F14
:108A30000AD150EA01347FF434AF95EA0C0F7FF489
:108A400025AF104619462CE795EA0C0F06D152EADD
:108A500003353FF4FDAE1046194622E750EA4106C1
:108A600018BF52EA43067FF4C5AE50EA41047FF4D2
:108A70000DAF52EA43057FF4EBAE12E74FF0FF3C37
:108A800006E000BF4FF0010C02E000BF4FF0010C08
:108A90004DF804CD4FEA410C7FEA6C5C4FEA430C81
:108AA00018BF7FEA6C5C1BD001B050EA410C0CBFD0
:108AB00052EA430C91EA030F02BF90EA020F002032
:108AC000704710F1000F91EA030F58BF994208BF99
:108AD00090422CBFD8176FEAE37040F00100704756
:108AE0004FEA410C7FEA6C5C02D150EA013C07D1AD
:108AF0004FEA430C7FEA6C5CD6D152EA033CD3D0F8
:108B00005DF8040B704700BF8446104662468C46F1
:108B10001946634600E000BF01B5FFF7B7FF002824
:108B200048BF10F1000F01BD4DF808EDFFF7F4FF4D
:108B30000CBF012000205DF808FB00BF4DF808EDD8
:108B4000FFF7EAFF34BF012000205DF808FB00BFFB
:108B50004DF808EDFFF7E0FF94BF012000205DF81D
:108B600008FB00BF4DF808EDFFF7CEFF94BF0120D2
:108B700000205DF808FB00BF4DF808EDFFF7C4FFCB
:108B800034BF012000205DF808FB00BF4FEA410C14
:108B90007FEA6C5C02D150EA013C0AD14FEA430CF7
:108BA0007FEA6C5C02D152EA033C02D14FF0000034
:108BB00070474FF0010070474FEA410212F5001272
:108BC00015D211D56FF47873B3EB625212D94FEA14
:108BD000C12343F0004343EA505311F0004F23FAFE
:108BE00002F018BF404270474FF00000704750EA53
:108BF000013005D111F0004008BF6FF00040704710
:108C00004FF00000704700BF4A0011D212F5001269
:108C100011D20DD56FF47873B3EB62520ED44FEAD4
:108C2000C12343F0004343EA505323FA02F0704754
:108C30004FF00000704750EA013002D14FF0FF3092
:108C400070474FF0000070474FEA4102B2F1E04335
:108C500024BFB3F5001CDCF1FE5C0DD901F0004C23
:108C60004FEAC0024CEA5070B2F1004F40EB830073
:108C700008BF20F00100704711F0804F21D113F19F
:108C80003872BCBF01F00040704741F480114FEAD8
:108C90005252C2F11802C2F1200C10FA0CF320FA61
:108CA00002F018BF40F001004FEAC1234FEAD3237E
:108CB00003FA0CFC40EA0C0023FA02F34FEA4303E8
:108CC000CCE77FEA625307D150EA01331EBF4FF071
:108CD000FE4040F44000704701F0004040F0FE408C
:108CE00040F40000704700BF53B94AB9002908BFDB
:108CF00000281CBF4FF0FF314FF0FF3000F0BEB92D
:108D0000ADF1080C6DE904CE00F03CF8DDF804E0AC
:108D1000DDE9022304B0704738B500220023044681
:108D20000D46FFF70BFF28B920462946BDE838401D
:108D300000F00AB8204605F1004100F005F8404275
:108D400061EB410138BD00BFD0B50C4B0022064697
:108D50000F46FFF781FCFFF757FF0446FFF702FCC1
:108D6000074B0022FFF778FC02460B463046394697
:108D7000FFF7BAFAFFF748FF2146D0BD0000F03DEB
:108D80000000F0412DE9F047089D8E4604468846D4
:108D9000002B4AD18A42174662D9B2FA82F64EB106
:108DA000C6F1200301FA06F820FA03F3B74043EABC
:108DB0000808B4404FEA174E1FFA87FCB8FBFEF1D3
:108DC000230C0EFB118843EA084301FB0CF29A4284
:108DD00009D9FB1801F1FF3080F0EA809A4240F295
:108DE000E78002393B449A1AA3B2B2FBFEF00EFBB5
:108DF000102243EA024300FB0CFC9C4509D9FB18F6
:108E000000F1FF3280F0D6809C4540F2D3803B4495
:108E1000023840EA0140A3EB0C0300211DB1F340EE
:108E20000022C5E90032BDE8F0878B4205D90DB1BB
:108E3000C5E9000100210846F5E7B3FA83F10029EE
:108E400046D1734502D3824200F20581841A6EEB4B
:108E5000030201209046002DE5D0C5E90048E2E775
:108E6000002A00F09080B2FA82F6002E40F0A48032
:108E70008A1A030C4FEA174E80B2BCB20121B2FB32
:108E8000FEFC0EFB1C2243EA024304FB0CF29A4256
:108E900007D9FB180CF1FF3802D29A4200F2E080A9
:108EA000C4469B1AB3FBFEF20EFB123340EA0343A7
:108EB00002FB04F49C4207D9FB1802F1FF3002D2F6
:108EC0009C4200F2CA8002461B1B42EA0C40A5E706
:108ED000C1F120068B4022FA06F71F430EFA01F477
:108EE00020FA06F32EFA06FE4FEA1749234300FA4A
:108EF00001F81FFA87FCBEFBF9F01C0C09FB10EE11
:108F000044EA0E4400FB0CFEA64502FA01F209D920
:108F10003C1900F1FF3A80F09C80A64540F2998010
:108F200002383C44A4EB0E041FFA83FEB4FBF9F3B1
:108F300009FB13444EEA044403FB0CFCA44508D986
:108F40003C1903F1FF3E80F08280A4457FD9023BAB
:108F50003C4443EA0040A4EB0C04A0FB02EC644553
:108F60007346E14662D35FD05DB1B8EB030264EBB8
:108F7000090404FA06F622FA01F31E43CC40C5E9BF
:108F8000006400214FE7B1FBF2FC010C41EA0E4105
:108F900080B240EA01423B4638463C46B846BE46AF
:108FA0002026B1FBF7F1A2EB080241EA0C4166E78B
:108FB000014618E710462CE7C6F120022EFA02F30C
:108FC000B740B14020FA02F24FEA174E0A43B3FB12
:108FD000FEF8BCB20EFB1833110C41EA034108FB4A
:108FE00004F9B04089454FEA104380B23ED9791860
:108FF00008F1FF3C01D289451FD8A1EB0901B1FB63
:10900000FEF909FB04F80EFB191192B242EA014283
:10901000424529D2BA1809F1FF31C4D24245C2D221
:10902000A9F102013A44BEE7F0459DD2BEEB02032E
:109030006CEB070C0138E14696E7A7EB09094944B8
:10904000A8F1020CB1FBFEF909FB04F8DBE773465B
:109050007FE7504666E70846FDE63B44023A33E7C1
:10906000ACF1020C3B441CE749469CE7A1EB09012B
:10907000C446B1FBFEF909FB04F8C4E7704700BF22
:1090800080B500AF00F004F80346184680BD00002C
:1090900080B58AB000AF06F01DF8F861274B1B6859
:1090A00000225A62264B00221A60244808F036FC3F
:1090B000224B1B685B6ABB61214B1B687B6100BF55
:1090C00006F008F80246FB69D31A092BF8D91B4BA6
:1090D0001B685B6A3B611A4B1B68FB60174808F012
:1090E0008DFCFA687B69D31A3B623A69BB699A4284
:1090F00004D33A69BB69D31A7B620BE03A69BB6956
:10910000D31A03F580337B623B6A002B02D03B6AA3
:10911000013B3B623B6A1B047A6A1344BB60BB6839
:109120004FF47A7202FB03F3064AA2FB0323DB0827
:109130007B607B6818462837BD4680BDD805002077
:10914000D4050020CDCCCCCC80B5AEB002AF7860D9
:109150000023C7F89C30604B00221A6001224FF4B4
:1091600000515E4806F02AFC002202215C4806F00D
:1091700025FC0023009332234FF4FA720021594852
:1091800005F00CFB05F0A6FFC7F8AC000023C7F8FC
:109190009830FFF775FFC7F8A800002387F8A730BD
:1091A0004FF47A600AF07EFE0346C7F894304FF41D
:1091B0007A600AF077FE0346C7F890300023C7F8BC
:1091C000A0306DE0484B1B6848491846FFF720F86F
:1091D0000346002B02D000F09BFA66E005F07AFF10
:1091E000C7F88C00D7F88C20D7F8AC30D31A072BEF
:1091F00056D9D7F88C30C7F8AC30FFF741FFC7F825
:109200009800D7F89820D7F8A830D31AC7F89C3020
:10921000D7F8A030B3F57A7F16D2D7F8A0309B00EC
:10922000D7F894201344D7F898201A60D7F8A030C4
:109230009B00D7F890201344D7F89C201A60D7F8E9
:10924000A0300133C7F8A030D7F89C30002BB8BF4E
:109250005B42274A934205DD97F8A730013387F830
:10926000A73002E0002387F8A73097F8A730022B39
:1092700002D900F04DFA18E0D7F8A0101D4BA3FB5F
:1092800001239A0813469B001344CA1A002A07D1E7
:1092900097F8A730002B03D1D7F89830C7F8A8303B
:1092A0000D4B1B687A689A428CD800F031FA0A4B51
:1092B0001B687A689A4202D80B4B0F4A1A60D7F89B
:1092C00094000AF0F7FDD7F890000AF0F3FD00BF14
:1092D000B037BD4680BD00BFCC0500200004024071
:1092E000001002404007002014000020088F0108F1
:1092F00070110100CDCCCCCC0C8F010880B582B0B0
:1093000002AF064B1A68064B1B68009332230021FC
:10931000044805F043FA00BFBD4680BD00000020B0
:10932000DC0400204007002080B500AF0021044885
:1093300008F0B4FC024808F061FB00BF80BD00BF2C
:109340004007002080B584B000AF7860454B002214
:109350001A600023FB6001224FF40051424806F0DE
:109360002DFB00220221414806F028FB404B93E8E8
:10937000030004F0B1FB0346002B2CD1FFF7BEFF26
:1093800022E03B4B93E8030004F0A6FB0346002BCE
:1093900002D00123FB601EE0364B93E8030004F08B
:1093A0009BFB0346002B15D12E4B1B687A689A4213
:1093B0000AD12F4B93E8030004F08EFB0346002BE9
:1093C00002D12D4B2D4A1A60264B1B687A689A42AF
:1093D000D7D200E000BFFB68012B3DD1214B00221A
:1093E0001A6000BF1F4B1B68092BFBD907E0204BFD
:1093F00093E8030004F070FB0346002B04D0194BE4
:109400001B68632BF3D900E000BF164B00221A60E3
:1094100000224FF40051144806F0D0FA07E0144B34
:1094200093E8030004F058FB0346002B04D10D4BD6
:109430001B68632BF3D900E000BF0A4B1B68642B49
:109440000AD10B4B93E8030004F046FB0346002BC4
:1094500002D1094B094A1A60FFF766FF00BF1037B7
:10946000BD4680BDCC050020000402400010024033
:10947000800200208802002014000020108F0108C4
:1094800080B584B000AF7860484B00221A6000239A
:10949000FB6001224FF40051454806F08FFA00228C
:1094A0000221444806F08AFA434B93E8030004F093
:1094B00013FB0346002B31D1FFF720FF27E03E4B83
:1094C00093E8030004F008FB0346002B07D00123B8
:1094D000FB60364B1B68184601F0C0FA1EE0374BA4
:1094E00093E8030004F0F8FA0346002B15D12F4B44
:1094F0001B687A689A420AD12F4B93E8030004F064
:10950000EBFA0346002B02D12D4B2E4A1A60274B53
:109510001B687A689A42D2D200E000BFFB68012B38
:109520003DD1224B00221A6000BF204B1B68092B43
:10953000FBD907E0204B93E8030004F0CDFA034683
:10954000002B04D0194B1B68632BF3D900E000BF3C
:10955000164B00221A6000224FF40051144806F006
:109560002DFA07E0144B93E8030004F0B5FA034624
:10957000002B04D10D4B1B68632BF3D900E000BF17
:109580000A4B1B68642B0AD10B4B93E8030004F0D1
:10959000A3FA0346002B02D1094B0A4A1A60FFF7CF
:1095A000C3FE00BF1037BD4680BD00BFCC05002004
:1095B00000040240001002408002002088020020C7
:1095C00014000020108F010880B584B000AF7860CF
:1095D00039603C4B00221A600023FB607B68002B43
:1095E00006D001224FF40051374806F0E7F905E0B4
:1095F00000224FF40051344806F0E0F90022022125
:10960000324806F0DBF97B68002B34D1FFF776FE99
:1096100027E02F4B93E8030004F05EFA0346002B8B
:1096200025D1284B1B68462B0BD12A4B93E803000E
:1096300004F052FA0346002B03D0274B274A1A6046
:1096400016E0204B1B68642B0BD9224B93E80300D8
:1096500004F042FA0346002B03D01F4B204A1A6045
:1096600006E0184B1A683B689A42D2D300E000BF6C
:10967000FFF75AFE1EE07B68002B1BD0154B93E8CA
:10968000030004F029FA0346002B13D1FFF736FE3E
:1096900007E00F4B93E8030004F01EFA0346002B8B
:1096A00005D1084B1A683B689A42F2D900E000BF26
:1096B000FFF73AFE0023FB60FFF736FE00BF1037CE
:1096C000BD4680BDCC0500200004024000100240D1
:1096D000880200208002002014000020148F01085E
:1096E000188F010880B582B002AF064B1A68064B8E
:1096F0001B68009332230021044805F04FF800BF97
:10970000BD4680BD04000020E0040020400700208A
:1097100080B500AF0021044808F0C0FA024808F004
:109720006DF900BF80BD00BF4007002080B584B048
:1097300000AF7860494B00221A600023FB600023D1
:10974000BB6000224FF40051454806F037F9002273
:109750000221444806F032F9434B93E8030004F039
:10976000BBF90346002B2DD1FFF7BCFF25E03E4B94
:1097700093E8030004F0B0F90346002B02D0012364
:10978000FB601FE0394B93E8030004F0A5F90346A2
:10979000002B0AD0314B00221A600123BB6001224A
:1097A0004FF400512E4806F009F92C4B1B687A68DB
:1097B0009A4202D12E4B2F4A1A60284B1B687A68B6
:1097C0009A42D4D2FB68012B40D1BB68012B3DD11A
:1097D000224B00221A6000BF204B1B68092BFBD9CB
:1097E00007E0214B93E8030004F076F90346002BD1
:1097F00004D01A4B1B68632BF3D900E000BF174B52
:1098000000221A6000224FF40051154806F0D6F8E5
:1098100007E0154B93E8030004F05EF90346002BC4
:1098200004D10E4B1B68632BF3D900E000BF0B4B38
:109830001B68642B0AD10C4B93E8030004F04CF92D
:109840000346002B02D10A4B0A4A1A600023BB6070
:10985000FFF75EFF00BF1037BD4680BDCC0500207E
:109860000004024000100240800200208802002014
:10987000140000201C8F010880B584B000AF786010
:109880004C4B00221A600023FB600023BB600022C7
:109890004FF40051484806F091F800220221474851
:1098A00006F08CF8464B93E8030004F015F90346E4
:1098B000002B32D1FFF716FF2AE0414B93E803005B
:1098C00004F00AF90346002B07D00123FB60394B53
:1098D0001B68184601F0C2F81FE03A4B93E80300FA
:1098E00004F0FAF80346002B0AD0324B00221A602B
:1098F0000123BB6001224FF400512F4806F05EF8AF
:109900002C4B1B687A689A4202D12F4B2F4A1A605F
:10991000284B1B687A689A42CFD2FB68012B40D152
:10992000BB68012B3DD1234B00221A6000BF214BA5
:109930001B68092BFBD907E0214B93E8030004F0D7
:10994000CBF80346002B04D01A4B1B68632BF3D9CA
:1099500000E000BF174B00221A6000224FF40051B4
:10996000154806F02BF807E0154B93E8030004F0C8
:10997000B3F80346002B04D10E4B1B68632BF3D9BD
:1099800000E000BF0B4B1B68642B0AD10C4B93E823
:10999000030004F0A1F80346002B02D10A4B0B4A46
:1099A0001A600023BB60FFF7B3FE00BF1037BD464F
:1099B00080BD00BFCC050020000402400010024022
:1099C0008002002088020020140000201C8F010863
:1099D00080B586B000AF78603960424B00221A60D3
:1099E00000233B610023FB6000237B617B68002B2D
:1099F00006D001224FF400513B4805F0DFFF05E09F
:109A000000224FF40051384805F0D8FF002202210F
:109A1000364805F0D3FF364B93E8030004F05CF8BA
:109A20000346002B01D001237B617B68002B39D0DA
:109A3000FFF758FE2EE02F4B93E8030004F04CF89C
:109A40000346002B03D02C4B2C4A1A6027E0254BF1
:109A50001B68322B0ED1264B93E8030004F03CF830
:109A60000346002B06D07B69002B03D0224B244AEF
:109A70001A6014E01B4B1B68322B0BD91C4B93E86C
:109A8000030004F029F80346002B03D01A4B1D4AAB
:109A90001A6004E0134B1A683B689A42CBD3FFF775
:109AA00037FE16E07B68002B13D1FFF71BFE07E0A3
:109AB000154B93E8030004F00FF80346002B05D183
:109AC000084B1A683B689A42F2D900E000BFFFF7E2
:109AD0001FFE00233B61FFF71BFE00BF1837BD468A
:109AE00080BD00BFCC0500200004024000100240F1
:109AF00080020020B002002014000020208F010806
:109B0000248F0108288F01088802002080B584B0C6
:109B100002AF78603960104B00221A600F4B0022B0
:109B20001A60012204210E4805F048FF00224FF47C
:109B300080410C4805F042FF7A684FF4FA730093B5
:109B400032230021084804F029FE642005F0CEFAF3
:109B500000BF0837BD4680BDE4040020E8040020B3
:109B600000100240000802408807002080B500AFC6
:109B70000021094804F07EFE084B00221A60084BC1
:109B800000221A60074B00221A60002204210648B6
:109B900005F014FF00BF80BD88070020CC05002021
:109BA000E4040020E80400200010024080B584B0E6
:109BB00002AF78603960414B00221A60404B0022AE
:109BC0001A60012204213F4805F0F8FE00224FF4FC
:109BD00080413D4805F0F2FE3C4B00221A603B6894
:109BE00000933223E1220021394804F0D7FD00BF61
:109BF000384B93E8030003F06FFF0346002B04D1BA
:109C0000324B1B68B3F57A7FF2D90021304804F05B
:109C100031FE2E4B1B68B3F57A7F03D32E4B2F4AB0
:109C20001A6002E02C4B2E4A1A600021284804F0EA
:109C300021FE294B1B6819462948FEF7E9FA03461D
:109C4000002B30D17A683B680093322300212048F2
:109C500004F0A4FD41F2883005F048FA1D4B93E86A
:109C6000030003F039FF0346012B02D11A4B1D4AB2
:109C70001A60194B1B6819461948FEF7C9FA0346C2
:109C8000002B03D147F2305005F030FA124B1B681D
:109C900019461348FEF7BCFA0346002B03D14FF4D4
:109CA0007A7000F021F80021094804F0E3FD074B29
:109CB00000221A6000BF0837BD4680BDE4040020C2
:109CC000E80400200010024000080240CC050020FB
:109CD00088070020A0020020140000202C8F01081B
:109CE000308F0108348F010880B584B002AF7860EE
:109CF0002C4B00221A60012204212B4805F05EFE45
:109D000000224FF48041294805F058FE284B1B687B
:109D100000933223E1220021264804F03FFD264B28
:109D200093E8030003F0D8FE0346012B12D100BFD5
:109D30001C4B1B68312BFBD91F4B93E8030003F02E
:109D4000CBFE0346012B02D11C4B1D4A1A60154B5A
:109D500000221A6000BF184B93E8030003F0BCFE1A
:109D60000346002B04D10F4B1B687A689A42F2D24B
:109D70000021104804F07EFD0A4B1B687A689A4265
:109D800002D80E4B0E4A1A60064B00221A600D4B89
:109D900000221A600C4B00221A6000BF0837BD4633
:109DA00080BD00BFCC05002000100240000802402A
:109DB0000800002088070020A002002014000020D6
:109DC0002C8F0108E4040020E804002080B400AFD8
:109DD0000E4B1B68002B07D10D4B1B68002B03D1CA
:109DE0000C4B0D4A1A6006E0084B1B68002B02D191
:109DF000084B0A4A1A60064B00221A60034B0022E5
:109E00001A6000BFBD465DF8047B7047E80400207F
:109E1000E404002014000020348F0108388F01086A
:109E200080B582B002AF064B1A68064B1B680093E0
:109E300032230021044804F0B1FC00BFBD4680BDC0
:109E40000C000020EC040020B006002080B500AF1C
:109E50000021044807F022FF024807F0CFFD00BFB1
:109E600080BD00BFB006002080B582B000AF786032
:109E70001C4B00221A60012201211B4805F09EFDA7
:109E800000220121194805F099FD194B93E80300C0
:109E900003F022FE0346002B19D1FFF7C1FF0FE0AC
:109EA000134B93E8030003F017FE0346002B0DD17C
:109EB0000C4B1B687A689A4202D10E4B0E4A1A600C
:109EC000084B1B687A689A42EAD200E000BF012280
:109ED0000121064805F072FDFFF7B8FF00BF083703
:109EE000BD4680BDCC0500200008024000100240A5
:109EF00098020020140000203C8F010880B586B035
:109F000000AF78603960434B00221A6000233B6148
:109F10000023FB6000237B617B68002B05D00022BF
:109F200001213D4805F04AFD04E0012201213A48A3
:109F300005F044FD00220121384805F03FFD384B73
:109F400093E8030003F0C8FD0346002B01D0012372
:109F50007B617B68002B2DD0FFF762FF22E02D4B49
:109F60001B68C82B0ED12E4B93E8030003F0B4FD01
:109F70000346002B06D07B69002B03D0294B2A4ACD
:109F80001A6014E0234B1B68C82B0BD9244B93E8B1
:109F9000030003F0A1FD0346002B03D0214B234A0D
:109FA0001A6004E01B4B1A683B689A42D7D3FFF74C
:109FB0004DFF22E07B68002B1FD1194B93E8030073
:109FC00003F08AFD0346FB72FB7A002B15D1FFF7E5
:109FD00027FF0BE0124B93E8030003F07DFD0346DF
:109FE000002B03D00F4B114A1A6004E0094B1A688A
:109FF0003B689A42EED9FFF729FF00233B6101221B
:10A000000121064805F0DAFCFFF720FF00BF1837F2
:10A01000BD4680BDCC050020000802400010024073
:10A020009802002014000020408F0108448F01088E
:10A0300080B582B002AF064B1A68064B1B680093CE
:10A0400032230021044804F0A9FB00BFBD4680BDB7
:10A0500010000020F0040020F806002080B500AFBA
:10A060000021044807F01AFE024807F0C7FC00BFB1
:10A0700080BD00BFF806002090B589B002AF7860BF
:10A080003960A94B00221A6000237B6100233B61E9
:10A090000023FB607B68002B00F0D48000224FF48B
:10A0A0008051A24805F08AFC00220821A04805F052
:10A0B00085FCA04B93E8030003F00EFD0346002B44
:10A0C0000BD19D4B93E8030003F006FD0346002BE4
:10A0D00003D10123FB6001233B61964B93E803000E
:10A0E00003F0FAFC0346002B07D1934B93E80300DF
:10A0F00003F0F2FC0346002B1FD18E4B93E80300C4
:10A1000003F0EAFC0346002B07D08B4B93E80300D7
:10A1100003F0E2FC0346002B0FD0864B93E80300CC
:10A1200003F0DAFC0346002B48D0834B93E803008E
:10A1300003F0D2FC0346002B40D0FFF779FF38E054
:10A140007C4B93E8030003F0C7FC0346002B0CBFD5
:10A1500001230023DCB2784B93E8030003F0BCFC3E
:10A160000346002B0CBF01230023DBB22340DBB2EC
:10A17000002B02D00123FB6020E0704B93E803002A
:10A1800003F0AAFC0346002B0AD0674B00221A609A
:10A1900001237B6101224FF48051644805F00EFCDD
:10A1A000614B1B683A689A4203D1654B654A1A6055
:10A1B00004E05D4B1B683A689A42C1D2FB68012BF0
:10A1C0003ED17B69002B02D03B69012B38D10022A4
:10A1D0004FF48051554805F0F1FB5B4B1B68009331
:10A1E00032234FF4FA720021584804F0D7FA4E4B4C
:10A1F00000221A6000BF4C4B1B68312BFBD94A4B25
:10A2000000221A6001224FF48051484805F0D6FB25
:10A210000FE0484B93E8030003F05EFC0346002B7D
:10A2200007D1454B93E8030003F056FC0346002B8F
:10A2300005D03D4B1B68B3F5FA7FEAD300E000BFC1
:10A24000FFF70CFF7B68002B40F0C88001224FF421
:10A250008051364805F0B2FB00220821344805F051
:10A26000ADFB344B93E8030003F036FC0346002BB0
:10A270000BD1314B93E8030003F02EFC0346002B77
:10A2800003D10123FB6001233B612A4B93E80300C8
:10A2900003F022FC0346002B07D1274B93E8030071
:10A2A00003F01AFC0346002B1FD1224B93E8030056
:10A2B00003F012FC0346002B07D01F4B93E803006A
:10A2C00003F00AFC0346002B0FD01A4B93E803005F
:10A2D00003F002FC0346002B3FD0174B93E803002A
:10A2E00003F0FAFB0346002B37D0FFF7A1FE2FE067
:10A2F000104B93E8030003F0EFFB0346002B0AD159
:10A300000D4B93E8030003F0E7FB0346002B02D15B
:10A310000123FB6021E0044B1B683A689A4217D185
:10A32000074B084A1A6018E0CC05002000040240E0
:10A3300000100240700200207802002090020020ED
:10A3400014000020488F0108F0040020F8060020C7
:10A35000244B1B683A689A42CAD2FB68012B3BD156
:10A360003B69012B38D100224FF480511E4805F083
:10A3700025FB1E4B1B68009332234FF4FA72002119
:10A380001B4804F00BFA174B00221A6000BF154B54
:10A390001B68312BFBD9134B00221A6001224FF4AA
:10A3A0008051114805F00AFB0FE0124B93E80300BF
:10A3B00003F092FB0346002B07D10F4B93E80300F9
:10A3C00003F08AFB0346002B05D0064B1B68B3F550
:10A3D000FA7FEAD300E000BFFFF740FE00BF1C3762
:10A3E000BD4690BDCC05002000040240F0040020D2
:10A3F000F8060020700200207802002080B58CB0A2
:10A4000000AFF860B9607A604FF496733B624FF426
:10A410001673FB610023FB760023FB62FB68FB766F
:10A42000FB7E002B00F0C8809C4B00221A600022AB
:10A4300008219B4805F0C2FA00224FF48051994848
:10A4400005F0BCFAFFF7F4FD53E0974B93E80300E7
:10A4500003F042FB0346002B09D1944B93E8030021
:10A4600003F03AFB0346002B01D1012300E0002357
:10A470007B618A4B1B68322B06D17B69012B03D190
:10A480008B4B8C4A1A6039E0844B1B68322B06D9FF
:10A490007B69012B03D1864B874A1A602EE0BB688B
:10A4A000B3F5FA7F16DD7D4B1B68322B21D97F4B2C
:10A4B00093E8030003F010FB0346002B19D17A4BFD
:10A4C00093E8030003F008FB0346002B11D001239F
:10A4D000FB6213E0714B1B68322B0AD9724B93E875
:10A4E000030003F0F9FA0346002B02D10123FB62BB
:10A4F00004E06A4B1A68BB689A42A6D3FB6A002B39
:10A500001AD16B4B1B686B491846FDF781FE034659
:10A51000002B0BD0664B1B6867491846FDF778FE89
:10A520000346002B02D0FFF799FDF8E0604B634A29
:10A530001A60FFF793FDF2E05D4B1B686049184617
:10A54000FDF766FE0346002B34D10223BB622DE0EB
:10A55000524B00221A6021E0BB68B3F5FA7F0EDD92
:10A560004E4B1B68322B19D9504B93E8030003F074
:10A57000B3FA0346002B11D10123FB6213E0474BD2
:10A580001B68322B0AD9484B93E8030003F0A4FA66
:10A590000346002B02D10123FB6204E03F4B1B6802
:10A5A0003A6A9A42D8D8BB6A0133BB62BB6A7A68FE
:10A5B0009A42CDD2FFF752FDFB7E002B40F0AF80D8
:10A5C000364B00221A6000220821354805F0F6F9C2
:10A5D00001224FF48051334805F0F0F9FFF728FDD0
:10A5E00039E0324B93E8030003F076FA0346002B80
:10A5F00009D12D4B93E8030003F06EFA0346002BBC
:10A6000001D1012300E000237B61244B1B68322B26
:10A6100006D17B69012B03D1254B264A1A601FE026
:10A620001E4B1B68322B06D97B69012B03D1204BB3
:10A63000214A1A6014E0194B1B68B3F5967F0AD9BA
:10A640001A4B93E8030003F047FA0346002B02D1AC
:10A650000123FB6204E0114B1A68BB689A42C0D325
:10A66000FB6A002B2ED1124B1B6812491846FDF7CE
:10A67000CFFD0346002B0BD00D4B1B680E4918462F
:10A68000FDF7C6FD0346002B02D0FFF7E7FC46E0CE
:10A69000074B0A4A1A60FFF7E1FC40E0CC050020B6
:10A6A00000100240000402407802002070020020E6
:10A6B000140000204C8F0108508F0108548F0108AE
:10A6C000588F0108174B1B6817491846FDF7A0FD66
:10A6D0000346002B21D102237B621AE0134B002298
:10A6E0001A600EE0114B1B68322B0AD9104B93E80D
:10A6F000030003F0F1F90346002B02D10123FB62B2
:10A7000004E00A4B1B68FA699A42EBD87B6A013372
:10A710007B627B6A7A689A42E0D2FFF79FFC30370F
:10A72000BD4680BD14000020588F0108CC050020D4
:10A730007002002080B586B000AFF860B9607A6022
:10A740000023FB7400237B61FB68FB74FB7C002B04
:10A750006ED0604B00221A60002208215E4805F08E
:10A760002DF900224FF480515C4805F027F9FFF7DE
:10A770005FFC43E07B68022B1ED1564B1B68322BDB
:10A780000BD1574B93E8030003F0A6F90346002BC7
:10A7900003D1544B544A1A6035E04E4B1B68332B9F
:10A7A0002CD94F4B93E8030003F096F90346002B96
:10A7B00024D101237B6126E07B68012B1ED1454B10
:10A7C0001B68322B0BD1494B93E8030003F084F94B
:10A7D0000346002B03D1434B434A1A6013E03D4B21
:10A7E0001B68322B0AD9414B93E8030003F074F93C
:10A7F0000346002B02D101237B6104E0354B1A682C
:10A80000BB689A42B6D3FFF729FC7B69002B0BD1BA
:10A81000344B1B6834491846FDF7FAFC0346002BFD
:10A8200002D0304B324A1A604FF4FA7004F05EFCEA
:10A83000FB7C002B4AD1274B00221A600022082102
:10A84000254805F0BBF801224FF48051234805F05C
:10A85000B5F8FFF7EDFB1FE01E4B1B68322B0BD149
:10A86000224B93E8030003F037F90346002B03D192
:10A870001C4B1D4A1A6014E0164B1B68B3F5C87FC9
:10A880000AD91A4B93E8030003F026F90346002B7C
:10A8900002D101237B6104E00E4B1A68BB689A4227
:10A8A000DAD37B69002B0BD10E4B1B680E4918467F
:10A8B000FDF7AEFC0346002B02D00A4B0C4A1A608F
:10A8C0004FF4FA7004F012FCFFF7C8FB00BF183712
:10A8D000BD4680BDCC0500200010024000040240AF
:10A8E00078020020140000205C8F01087002002014
:10A8F000548F010880B500AF054B1B78012B05D1A3
:10A90000044800F0C9F8024B00221A7000BF80BD55
:10A910005E0500202C05002080B590B000AF786067
:10A92000282178680AF008FCF863FB6B002B10D034
:10A93000FA6B7B68D31ABB6307F12003BA6B7968A3
:10A9400018460AF006FC07F12002BB6B13440022F4
:10A950001A70282128480AF0EFFBF863FB6B002BE4
:10A9600010D0FB6B244A9B1A7B6307F10C037A6BB4
:10A97000214918460AF0EDFB07F10C027B6B1344EA
:10A9800000221A7007F10C0207F120031146184645
:10A99000FDF73EFC0346002B1AD107F120031422D9
:10A9A000002118460AF0C0FB07F10C031422002115
:10A9B00018460AF0B9FB1048FDF78AFC03469AB224
:10A9C0004FF0FF330C490D4808F07CF901230EE0ED
:10A9D00007F120031422002118460AF0A5FB07F115
:10A9E0000C031422002118460AF09EFB002318468F
:10A9F0004037BD4680BD00BF2C050020A8080020C0
:10AA000080B500AF062004F073F90D2004F070F952
:10AA100000BF80BD80B500AF0C4B1B6819460C48C9
:10AA2000FDF7F6FB0346002B04D0084B1B681846C5
:10AA300004F070F9242004F05BF9044B044A1A6016
:10AA4000044B054A1A6000BF80BD00BF14000020FF
:10AA5000608F0108E8020020648F010880B588B08B
:10AA600000AF78607B6807F10C00094A10210AF0FA
:10AA7000FDF9F861FB699AB207F10C014FF0FF3361
:10AA8000044808F01FF900BF2037BD4680BD00BF55
:10AA90006C8F0108A808002080B5E6B002AF07F56A
:10AAA000C873A3F5C6731860C348FFF735FF0346A4
:10AAB000012B09D1FFF7A4FFC04804F02BF9242093
:10AAC00004F016F902F015B9BD48FFF725FF03465B
:10AAD000012B15D1FFF794FFBA4B93E8030002F066
:10AAE000FBFF0346002B03D0312004F001F902E004
:10AAF000302004F0FDF8242004F0FAF802F0F9B850
:10AB0000B148FFF709FF0346012B15D1FFF778FF86
:10AB1000AE4B93E8030002F0DFFF0346002B03D0A7
:10AB2000312004F0E5F802E0302004F0E1F82420C0
:10AB300004F0DEF802F0DDB8A548FFF7EDFE0346AD
:10AB4000012B15D1FFF75CFFA24B93E8030002F045
:10AB5000C3FF0346002B03D0312004F0C9F802E004
:10AB6000302004F0C5F8242004F0C2F802F0C1B887
:10AB70009948FFF7D1FE0346012B15D1FFF740FF9F
:10AB8000964B93E8030002F0A7FF0346002B03D087
:10AB9000312004F0ADF802E0302004F0A9F82420C0
:10ABA00004F0A6F802F0A5B88D48FFF7B5FE0346FD
:10ABB000012B15D1FFF724FF8A4B93E8030002F025
:10ABC0008BFF0346002B03D0312004F091F802E004
:10ABD000302004F08DF8242004F08AF802F089B8BF
:10ABE0008148FFF799FE0346012B15D1FFF708FFB7
:10ABF0007E4B93E8030002F06FFF0346002B03D067
:10AC0000312004F075F802E0302004F071F82420BF
:10AC100004F06EF802F06DB87548FFF77DFE03464C
:10AC2000012B15D1FFF7ECFE724B93E8030002F005
:10AC300053FF0346002B03D1312004F059F802E002
:10AC4000302004F055F8242004F052F802F051B8F6
:10AC50006948FFF761FE0346012B15D1FFF7D0FECF
:10AC6000664B93E8030002F037FF0346002B03D046
:10AC7000312004F03DF802E0302004F039F82420BF
:10AC800004F036F802F035B85D48FFF745FE03469C
:10AC9000012B15D1FFF7B4FE5A4B93E8030002F0E5
:10ACA0001BFF0346002B03D0312004F021F802E003
:10ACB000302004F01DF8242004F01AF802F019B82E
:10ACC0005148FFF729FE0346012B2BD10023C7F87B
:10ACD000D830FFF795FE07F1D80207F5C873A3F542
:10ACE000C6734A4918680AF019F9C7F8DC00D7F8A2
:10ACF000DC30012B08D04FF0FF3317224449454880
:10AD000007F0E0FF01F0FABF434B1B68002B05D0B2
:10AD1000D7F8D830DBB2184602F0F4FEFFF77AFE1F
:10AD200001F0E7BF3D48FFF7F7FD0346012B1DD1BA
:10AD3000FFF766FE07F5C873A3F5C673364A3849B0
:10AD400018680AF0EBF8C7F8E000D7F8E030012BFC
:10AD500008D04FF0FF3317222D492E4807F0B2FFDD
:10AD600001F0CCBFFFF756FE01F0C3BF2D48FFF73F
:10AD7000D3FD0346012B40F08D800023C7F8D4306B
:10AD8000FFF73EFE07F1D40207F5C873A3F5C673BB
:10AD9000254918680AF0C2F8C7F8E400D7F8E4308B
:10ADA000012B43D04FF0FF3317221949194807F000
:10ADB00089FF01F0A3BF00BF20020020708F0108AF
:10ADC0001C000020800200202800002088020020B3
:10ADD00034000020900200203C000020700200207F
:10ADE0004800002078020020540000209802002033
:10ADF0005C000020B002002064000020A0020020BF
:10AE00006C000020A802002074000020788F010848
:10AE1000848F0108A8080020180000207C00002072
:10AE20009C8F010890000020A88F01080021BE48D7
:10AE300002F098FDBD4B93E8030004F075F8D7F8D5
:10AE4000D430184603F080FFB74802F0B9FDB74B85
:10AE500093E8030004F068F84FF47A7004F046F9C0
:10AE60000121B14802F07EFDB04B93E8030004F0ED
:10AE70005BF8D7F8D430184603F066FFAA4802F012
:10AE80009FFDAA4B93E8030004F04EF8FFF7C2FDC4
:10AE900001F02FBFA648FFF73FFD0346012B51D11C
:10AEA0000023C7F8D030FFF7ABFD07F1D00207F55C
:10AEB000C873A3F5C6739F4918680AF02FF8C7F83E
:10AEC000E800D7F8E830012B08D04FF0FF33172205
:10AED00099499A4807F0F6FE01F010BF0021984802
:10AEE00002F040FD914B93E8030004F01DF8D7F801
:10AEF000D030184603F028FF914802F061FD8B4BDB
:10AF000093E8030004F010F84FF47A7004F0EEF8C0
:10AF100001218B4802F026FD844B93E8030004F0E6
:10AF200003F8D7F8D030184603F00EFF844802F03B
:10AF300047FD7E4B93E8030003F0F6FFFFF76AFD41
:10AF400001F0D7BE7F48FFF7E7FC0346012B11D184
:10AF5000FFF756FD00217A4802F004FD734B93E899
:10AF6000030003F0E1FFC82004F0C0F8FFF752FD32
:10AF700001F0BFBE7448FFF7CFFC0346012B11D18F
:10AF8000FFF73EFD6E4802F01BFD684B93E803009F
:10AF900003F0CAFF4FF4FA7004F0A8F8FFF73AFD87
:10AFA00001F0A7BE6948FFF7B7FC0346012B51D15A
:10AFB0000023C7F8CC30FFF723FD07F1CC0207F5DB
:10AFC000C873A3F5C6736249186809F0A7FFC7F8EC
:10AFD000EC00D7F8EC30012B08D04FF0FF331722EC
:10AFE0005549564807F06EFE01F088BE00214E48D4
:10AFF00002F0B8FC4D4B93E8030003F095FFD7F83F
:10B00000CC30184603F0A0FE474802F0D9FC474B6D
:10B0100093E8030003F088FF4FF47A7004F066F8B9
:10B020000121414802F09EFC404B93E8030003F0ED
:10B030007BFFD7F8CC30184603F086FE3A4802F082
:10B04000BFFC3A4B93E8030003F06EFFFFF7E2FC0E
:10B0500001F04FBE3F48FFF75FFC0346012B19D1BB
:10B06000FFF7CEFC3C4B93E8030003F04DFF3B4B56
:10B0700093E8030003F038FF394B93E8030003F033
:10B0800033FF384B93E8030003F04EFFFFF7C2FC99
:10B0900001F02FBE3448FFF73FFC0346012B23D1BC
:10B0A000FFF7AEFC2C4B93E8030003F02DFF2B4B76
:10B0B00093E8030003F028FF294B93E8030003F013
:10B0C00023FF284B93E8030003F02EFF244B93E863
:10B0D000030003F009FF234B93E8030003F024FF70
:10B0E000FFF798FC01F005BE2048FFF715FC03466A
:10B0F000012B74D1FFF784FC184B93E8030003F095
:10B1000003FF184B93E8030003F00EFF124B93E884
:10B11000030003F0F9FE134B93E8030003F004FF70
:10B120000123C7F88C3144E0280200205802002097
:10B1300098000020B48F0108848F0108A80800201F
:10B1400038020020A0000020A8000020B400002049
:10B15000C08F010820010020D8020020D00200206A
:10B16000C80200206802002018010020F40000201E
:10B17000CC4B93E8030003F0B7FECB4B93E80300FE
:10B1800003F0D2FE4FF47A7003F0B0FFC54B93E8A2
:10B19000030003F0B9FEC44B93E8030003F0C4FEC0
:10B1A0004FF47A7003F0A2FFD7F88C310133C7F85F
:10B1B0008C31D7F88C31032BDADDBA4B93E80300DE
:10B1C00003F092FEB84B93E8030003F0ADFE4FF49A
:10B1D000FA7003F08BFFFFF71DFC01F08ABDB34846
:10B1E000FFF79AFB0346012B50D1FFF709FCB04B48
:10B1F00093E8030003F088FEAB4B93E8030003F0F1
:10B2000093FEA84B93E8030003F07EFEA64B93E861
:10B21000030003F089FE0123C7F8883120E0A54B25
:10B2200093E8030003F060FE9F4B93E8030003F0F4
:10B230007BFE4FF47A7003F059FF9E4B93E80300B6
:10B2400003F062FE984B93E8030003F06DFE4FF4A9
:10B250007A7003F04BFFD7F888310133C7F8883193
:10B26000D7F88831032BDADD8E4B93E8030003F027
:10B270003BFE8D4B93E8030003F056FE4FF4FA704B
:10B2800003F034FFFFF7C6FB01F033BD8A48FFF738
:10B2900043FB0346012B50D1FFF7B2FB844B93E8ED
:10B2A000030003F031FE804B93E8030003F03CFE03
:10B2B0000123C7F884312AE07E4B93E8030003F0B2
:10B2C00013FE784B93E8030003F00EFE764B93E8F1
:10B2D000030003F029FE4FF47A7003F007FF754B6B
:10B2E00093E8030003F010FE6E4B93E8030003F0B5
:10B2F0000BFE6D4B93E8030003F016FE4FF47A70DB
:10B3000003F0F4FED7F884310133C7F88431D7F85D
:10B310008431032BD0DD634B93E8030003F0E4FD9D
:10B32000614B93E8030003F0FFFD4FF47A7003F0E4
:10B33000DDFEFFF76FFB01F0DCBC6048FFF7ECFAC5
:10B340000346012B77D10023C7F8C830FFF758FB1D
:10B3500007F1C80207F5C873A3F5C6735849186802
:10B3600009F0DCFDC7F8F000D7F8F030012B05D06C
:10B37000642317225349544807F0A4FCD7F8C83077
:10B38000002B19D14A4B93E8030003F0BDFD454B58
:10B3900093E8030003F0B8FD464B93E8030003F085
:10B3A000A3FD4A4B93E8030003F0E3FD3E4B93E813
:10B3B000030003F0B9FD3AE0D7F8C830012B19D1EA
:10B3C0003B4B93E8030003F09FFD364B93E80300EB
:10B3D00003F09AFD374B93E8030003F085FD3B4BE8
:10B3E00093E8030003F0C5FD2F4B93E8030003F03F
:10B3F0009BFD1CE0D7F8C830022B18D12C4B93E8EA
:10B40000030003F081FD274B93E8030003F07CFD6C
:10B41000284B93E8030003F067FD2C4B93E80300EF
:10B4200003F0A7FD204B93E8030003F07DFDFFF739
:10B43000F1FA01F05EBC2648FFF76EFA0346012BD5
:10B4400048D1FFF7DDFA214B93E8030003F0A1FD9B
:10B45000184B93E8030003F057FD134B93E80300E8
:10B4600003F062FD124B93E8030003F04DFD0E4B19
:10B4700093E8030003F058FD0E4B93E8030003F03C
:10B4800033FD084B93E8030003F02EFD064B93E8D1
:10B49000030003F049FD642003F028FEFFF7BAFA29
:10B4A00001F027BCC8020020680200200001002033
:10B4B000D8020020D00200200C010020280100202A
:10B4C000C88F0108848F0108A8080020E00200202E
:10B4D00034010020C048FFF71FFA0346012B1ED19C
:10B4E000FFF78EFABD4B93E8030003F0DDFCBC4B85
:10B4F00093E8030003F018FD40F6B83003F0F6FDC2
:10B50000B64B93E8030003F0DFFCB54B93E8030070
:10B5100003F00AFD242003F0EBFB01F0EABBB14885
:10B52000FFF7FAF90346012B1ED1FFF769FAAE4B7C
:10B5300093E8030003F0B8FCA94B93E8030003F081
:10B54000F3FC40F6B83003F0D1FDA74B93E80300BD
:10B5500003F0BAFCA24B93E8030003F0E5FC2420BF
:10B5600003F0C6FB01F0C5BBA048FFF7D5F90346C1
:10B57000012B14D1FFF744FA984B93E8030003F032
:10B5800093FC974B93E8030003F0CEFC4FF4FA7062
:10B5900003F0ACFD242003F0ABFB01F0AABB944800
:10B5A000FFF7BAF90346012B14D1FFF729FA8B4BA9
:10B5B00093E8030003F088FC894B93E8030003F051
:10B5C000B3FC4FF4FA7003F091FD242003F090FBDC
:10B5D00001F08FBB8748FFF79FF90346012B14D179
:10B5E000FFF70EFA804B93E8030003F05DFC7C4B01
:10B5F00093E8030003F098FC4FF4FA7003F076FD33
:10B60000242003F075FB01F074BB7B48FFF784F93D
:10B610000346012B14D1FFF7F3F9734B93E80300B2
:10B6200003F052FC6E4B93E8030003F07DFC4FF4F3
:10B63000FA7003F05BFD242003F05AFB01F059BBC4
:10B640006E48FFF769F90346012B09D1FFF7D8F9D6
:10B650000021E120FEF75AFAFFF7DCF901F049BBBF
:10B660006748FFF759F90346012B07D1FFF7C8F9DF
:10B67000FEF77CFAFFF7CEF901F03BBB6148FFF71C
:10B680004BF90346012B26D10023C7F8C430FFF73E
:10B69000B7F907F1C40207F5C873A3F5C6735A4991
:10B6A000186809F03BFCC7F8F400D7F8F430012B18
:10B6B00008D04FF0FF3317225449554807F002FBDA
:10B6C00001F01CBBD7F8C4301846FEF70DFBFFF79E
:10B6D000A1F901F00EBB4F48FFF71EF90346012BFD
:10B6E00007D1FFF78DF9FEF771FBFFF793F901F032
:10B6F00000BB4948FFF710F90346012B09D1FFF7BA
:10B700007FF900211420FEF751FAFFF783F901F0C9
:10B71000F0BA4248FFF700F90346012B26D1002377
:10B72000C7F8C030FFF76CF907F1C00207F5C8731E
:10B73000A3F5C6733A49186809F0F0FBC7F8F8009A
:10B74000D7F8F830012B08D04FF0FF3317222F49DC
:10B750002F4807F0B7FA01F0D1BAD7F8C030184631
:10B76000FDF7F0FDFFF756F901F0C3BA2D48FFF7DA
:10B77000D3F80346012B59D10023C7F8BC3000236E
:10B78000C7F8B830FFF73CF907F1B80307F1BC027E
:10B7900007F5C871A1F5C6702349006809F0BEFB22
:10B7A000C7F8FC00D7F8FC30022B08D04FF0FF336D
:10B7B00017221649164807F085FA01F09FBAD7F804
:10B7C000BC301A46D7F8B83019461046FDF7FCFED3
:10B7D000FFF720F901F08DBABC00002048020020DC
:10B7E00068020020C400002050020020CC0000208D
:10B7F000D4000020E0000020E80000203C010020F0
:10B80000440100204C010020D48F0108848F0108DE
:10B81000A8080020540100205C01002074010020D1
:10B82000E08F010880010020EC8F0108BF48FFF77E
:10B8300073F80346012B40F090800023C7F8B43022
:10B840000023C7F8B0300023C7F8AC300223C7F894
:10B850008031FFF7D5F807F1B00107F1B40207F521
:10B86000C873A3F5C67007F1AC0300930B46B0494B
:10B87000006809F053FBC7F80001D7F80031032B2B
:10B8800008D04FF0FF331722AA49AB4807F01AFA45
:10B8900001F034BAA94B1B68002B0AD0A84B93E8DF
:10B8A000030002F019F90346002B02D1A54BA64A6A
:10B8B0001A60A44B1B68A5491846FCF7A9FC03466F
:10B8C000002B46D1D7F8B03019460020FDF77CFE9A
:10B8D0009C4B1B689D491846FCF79AFC0346002BBD
:10B8E00037D1D7F8AC30184602F082F818E00222BF
:10B8F0004FF496710120FEF71DFF924B1B68934990
:10B900001846FCF785FC0346002B14D1D7F8AC3061
:10B91000184602F06DF8D7F880310133C7F880314E
:10B92000D7F8B430012B07D9D7F8B430D7F8802135
:10B930009A42DCD900E000BF824B1B68834918465D
:10B94000FCF766FC0346002B03D14FF4FA70FDF7B9
:10B95000F9FCFFF75FF801F0CCB97D48FEF7DCFF9A
:10B960000346012B40F0B8800023C7F8A83000231D
:10B97000C7F8A4300023C7F8A0300023C7F89C30D4
:10B980000223C7F87C314FF42F73C7F80831FFF753
:10B9900037F807F1A40107F1A80207F5C873A3F56A
:10B9A000C67007F19C03019307F1A00300930B46B7
:10B9B0006849006809F0B2FAC7F80401D7F8043101
:10B9C000042B08D04FF0FF3317225A495A4807F08A
:10B9D00079F901F093B9D7F8A43019460120FDF7A1
:10B9E000F7FF584B1B6859491846FCF711FC0346F2
:10B9F000002B6DD1584B93E8030003F055FA574BD9
:10BA000093E8030003F090FA4FF4FA7003F06EFB32
:10BA10004C4B1B684D491846FCF7FAFB0346002BBC
:10BA200056D1D7F89C3019460020FEF767FA454BEF
:10BA30001B6846491846FCF7EBFB0346002B47D131
:10BA400022E001224FF496710120FEF773FE3D4B78
:10BA50001B683E491846FCF7DBFB0346002B1ED152
:10BA6000D7F89C3019460020FEF748FA354B1B6882
:10BA700036491846FCF7CCFB0346002B11D1D7F80A
:10BA80007C310133C7F87C31D7F8A830012B09D9B4
:10BA9000D7F8A830D7F87C219A42D2D902E000BF6B
:10BAA00000E000BF2C4B93E8030003F00DFA4FF4C5
:10BAB000FA7003F01BFB234B1B6824491846FCF764
:10BAC000A7FB0346002B03D1D7F80801FDF72EFE94
:10BAD000FEF7A0FF01F00DB92148FEF71DFF034658
:10BAE000012B40F036810023C7F898300023C7F8B7
:10BAF0009430FEF785FF07F1940307F1980207F5EC
:10BB0000C871A1F5C6701749006809F007FAC7F8AF
:10BB10000C01D7F80C31022B26D04FF0FF3317223F
:10BB20000449054807F0CEF801F0E8B88C01002080
:10BB3000FC8F0108848F0108A8080020180000204D
:10BB4000B8020020140000200C900108608F01084A
:10BB5000CC0100201090010848020020680200205B
:10BB6000F4010020249001084FF4FA70FDF7DEFD87
:10BB7000C14B1B68C1491846FCF74AFB0346002B22
:10BB800040F0C580BE4B93E8030003F09DF9BD4B28
:10BB900093E8030003F0C8F94FF4967003F0A6FA97
:10BBA00042F21C50FEF760F9B34B1B68B3491846CC
:10BBB000FCF72EFB0346002B40F0A980D7F8943009
:10BBC00019460120FDF704FFAB4B1B68AB49184633
:10BBD000FCF71EFB0346002B40F099800021AA4889
:10BBE00001F0C0FEA94B93E8030003F09DF94FF468
:10BBF000967003F07BFAA24B93E8030003F064F91C
:10BC0000A04B93E8030003F08FF94FF4967003F014
:10BC10006DFA0123C7F8783147E042F2283101205C
:10BC2000FEF76CF9944B1B6894491846FCF7F0FA40
:10BC30000346002B40D1C82003F058FA904B93E8FC
:10BC4000030003F031F98F4B93E8030003F06CF924
:10BC50004FF4967003F04AFA42F21C50FEF704F9D2
:10BC6000854B1B6885491846FCF7D2FA0346002B22
:10BC700024D1814B1B6881491846FCF7C9FA034659
:10BC8000002B1DD17E4B93E8030003F01DF97D4B83
:10BC900093E8030003F048F94FF4967003F026FA96
:10BCA000D7F878310133C7F87831D7F87821D7F849
:10BCB00098309A42B1D904E000BF02E000BF00E032
:10BCC00000BF714801F07CFE704B93E8030003F065
:10BCD0002BF94FF4967003F009FA674B1B6867491C
:10BCE0001846FCF795FA0346002B03D14FF4FA707F
:10BCF000FDF71CFD604B1B6860491846FCF788FA8D
:10BD00000346002B03D142F21C50FEF7ADF85A4B0C
:10BD10001B685A491846FCF77BFA0346002B14D0DF
:10BD2000594801F04DFE594B93E8030003F0FCF82D
:10BD30004FF4967003F0DAF9514B93E8030003F0E7
:10BD4000C3F84FF4967003F0D1F9FEF763FE00F0EC
:10BD5000D0BF4F48FEF7E0FD0346012B40F0D680F0
:10BD600007F5C873A3F5807300221A6007F5C8733E
:10BD7000A3F5827300221A60FEF742FE07F18C03DE
:10BD800007F1900207F5C871A1F5C6704149006836
:10BD900009F0C4F8C7F81401D7F81431022B08D001
:10BDA0004FF0FF3317223C493C4806F08BFF00F070
:10BDB000A5BF334B93E8030003F076F8314B93E8CB
:10BDC000030003F0B1F84FF4967003F08FF90123EC
:10BDD000C7F8743174E007F5C873A3F582731B6864
:10BDE00019460120FEF78AF84FF47A7003F07EF9C5
:10BDF000214B1B6821491846FCF70AFA0346002B21
:10BE000059D1D7F8742107F5C873A3F580731B685F
:10BE10009A4250D232210120FDF7DAFD164B1B6801
:10BE20001F491846FCF7F4F90346002B3AD1D7F81E
:10BE30007431C7F810310123C7F8703115E0322191
:10BE40000020FDF7C5FD07F5C873A3F582731B68D5
:10BE500019460020FEF752F84FF47A7003F046F9C5
:10BE6000D7F870310133C7F87031D7F87021D7F89F
:10BE700010319A42E3DD2EE014000020608F0108AB
:10BE800048020020680200203802002058020020EA
:10BE9000FC01002034900108848F0108A8080020CC
:10BEA00044900108CC4B1B68CC491846FCF7B0F90C
:10BEB0000346002B0ED1D7F874310133C7F8743123
:10BEC000D7F8742107F5C873A3F580731B689A42ED
:10BED00081D900E000BFC04B1B68C0491846FCF781
:10BEE00097F90346002B0DD0BD4B93E8030002F0F9
:10BEF000DBFFBC4B93E8030003F016F84FF4967099
:10BF000003F0F4F8FEF786FD00F0F3BEB648FEF746
:10BF100003FD0346012B40F0908007F5C873A3F59D
:10BF2000847300221A6007F5C873A3F58673002294
:10BF30001A60FEF765FD07F1840307F1880207F533
:10BF4000C871A1F5C670A949006808F0E7FFC7F8F5
:10BF50001801D7F81831022B08D04FF0FF33172201
:10BF6000A349A44806F0AEFE00F0C8BE07F5C873AA
:10BF7000A3F584731B6819460020FDF725FB964B3B
:10BF80001B6819469548FCF743F90346002B50D12E
:10BF90000021994801F0E6FC984B93E8030002F079
:10BFA000C3FF4FF4967003F0A1F80021944801F00C
:10BFB000D9FC924B93E8030002F0B6FF07F5C87373
:10BFC000A3F586731B68184602F0BEFE8C4801F08C
:10BFD000F7FC8A4B93E8030002F0A6FF4FF47A7057
:10BFE00003F084F80121864801F0BCFC834B93E800
:10BFF000030002F099FF642002F0A6FE804801F0E1
:10C00000DFFC7E4B93E8030002F08EFF642002F019
:10C010009BFE794801F0D4FC784B93E8030002F0D2
:10C0200083FF4FF4967003F061F84FF4FA70FDF758
:10C0300089F9FEF7EFFC00F05CBE7248FEF76CFC7D
:10C040000346012B40F0058107F5C873A3F58873FB
:10C0500000221A6007F5C873A3F58A7300221A60DC
:10C0600007F5C873A3F58C7300221A600223C7F882
:10C070006C3107F5C873A3F58E7300221A60FEF7C2
:10C08000BFFC07F17C0107F1800207F5C873A3F537
:10C09000C67007F17403019307F1780300930B4610
:10C0A0005949006808F03AFFC7F81C01D7F81C315D
:10C0B000042B08D04FF0FF3317224D494D4806F0AE
:10C0C00001FE00F01BBE0123C7F8683126E0D7F857
:10C0D0006C01FEF7C3FC07F5C873A3F58A731B68F0
:10C0E00019460020FDF770FA3B4B1B6819463B4888
:10C0F000FCF78EF80346002B0BD107F5C873A3F5A8
:10C100008C731B68184601F0AFFC4FF4FA70FDF712
:10C1100019F9D7F868310133C7F86831D7F86821C1
:10C1200007F5C873A3F58E731B689A42CFD92A4BC3
:10C130001B6819462948FCF76BF80346002B40F0B2
:10C1400084806FE002224FF496710120FEF7F2FA2C
:10C15000214B1B6819462148FCF75AF80346002B6F
:10C1600072D10123C7F864312BE007F5C873A3F53A
:10C170008A731B6819460020FDF726FA164B1B68C8
:10C1800019461648FCF744F80346002B3ED107F544
:10C19000C873A3F58C731B68184601F065FC4FF457
:10C1A000FA70FDF7CFF80C4B1B6819460B48FCF7EB
:10C1B0002FF80346002B2BD1D7F864310133C7F891
:10C1C0006431D7F8642107F5C873A3F58E731B6833
:10C1D0009A42CAD91DE000BF14000020608F0108F8
:10C1E0004802002068020020040200204890010854
:10C1F000848F0108A808002038020020580200207F
:10C2000028020020940100205890010800BF00E09F
:10C2100000BFD7F86C310133C7F86C31D7F86C0127
:10C22000FEF71CFC07F5C873A3F588731B68012B88
:10C230000BD907F5C873A3F588731B68D7F86C2171
:10C240009A427FF67FAF00E000BFFEF7E3FB00F00D
:10C2500050BDCA48FEF760FB0346012B2CD107F501
:10C26000C873A3F5907300221A60FEF7C9FB07F1AB
:10C27000700207F5C873A3F5C673C149186808F0C2
:10C280004DFEC7F82001D7F82031012B08D04FF020
:10C29000FF331722BB49BC4806F014FD00F02EBD49
:10C2A00007F5C873A3F590731B681846FDF73EFAAF
:10C2B000FEF7B0FB00F01DBDB448FEF72DFB0346B2
:10C2C000012B2CD107F5C873A3F5927300221A60D5
:10C2D000FEF796FB07F16C0207F5C873A3F5C6736A
:10C2E000AB49186808F01AFEC7F82401D7F82431C2
:10C2F000012B08D04FF0FF331722A249A24806F0C5
:10C30000E1FC00F0FBBC07F5C873A3F592731B6852
:10C310001846FDF7B1FAFEF77DFB00F0EABC9D4838
:10C32000FEF7FAFA0346012B2CD107F5C873A3F5E3
:10C33000947300221A60FEF763FB07F1680207F5A9
:10C34000C873A3F5C6739449186808F0E7FDC7F8E9
:10C350002801D7F82831012B08D04FF0FF331722DE
:10C360008849894806F0AEFC00F0C8BC07F5C873E0
:10C37000A3F594731B681846FDF782F8FEF74AFB95
:10C3800000F0B7BC8548FEF7C7FA0346012B3BD146
:10C3900007F5C873A3F5967300221A6007F5C873F2
:10C3A000A3F5987300221A60FEF72AFB07F16003D9
:10C3B00007F1640207F5C871A1F5C67078490068F5
:10C3C00008F0ACFDC7F82C01D7F82C31022B08D0AF
:10C3D0004FF0FF3317226B496B4806F073FC00F0F7
:10C3E0008DBC07F5C873A3F596731B681A4607F54D
:10C3F000C873A3F598731B6819461046FDF7E8FA51
:10C40000FEF708FB00F075BC6648FEF785FA0346A8
:10C41000012B2CD107F5C873A3F59A7300221A607B
:10C42000FEF7EEFA07F15C0207F5C873A3F5C673D1
:10C430005D49186808F072FDC7F83001D7F830314F
:10C44000012B08D04FF0FF3317224E494E4806F01B
:10C4500039FC00F053BC07F5C873A3F59A731B6849
:10C460001846FDF701FDFEF7D5FA00F042BC4F4833
:10C47000FEF752FA0346012B3BD107F5C873A3F52B
:10C480009C7300221A6007F5C873A3F59E730022FF
:10C490001A60FEF7B5FA07F1540307F1580207F5E1
:10C4A000C871A1F5C6704249006808F037FDC7F8A9
:10C4B0003401D7F83431022B08D04FF0FF33172264
:10C4C0003049314806F0FEFB00F018BC07F5C87390
:10C4D000A3F59C731B681A4607F5C873A3F59E73F2
:10C4E0001B6819461046FDF709FDFEF793FA00F0A8
:10C4F00000BC3048FEF710FA0346012B62D101233D
:10C50000C7F83C3107F5C873A3F5A07300221A6081
:10C51000FEF776FA07F1500207F5C873A3F5C67364
:10C520002549186808F0FAFCC7F83801D7F83831FF
:10C53000012B07D04FF0FF3317221249124806F0A3
:10C54000C1FBDBE31D4B93E8030002F0ADFC1C4B89
:10C5500093E8030002F0E8FC4FF4FA7002F0C6FD25
:10C56000D7F83C2107F5C873A3F5A0731B681946DB
:10C570001046FDF7C3FCFEF74DFABAE3A801002010
:10C580006C900108848F0108A8080020C0010020D9
:10C59000789001089C01002084900108B4010020DB
:10C5A00090900108D4010020A0900108DC01002037
:10C5B000AC900108E4010020BC9001084802002072
:10C5C00068020020CC48FEF7A7F90346012B39D1B9
:10C5D00007F5C873A3F5A27300221A6007F5C873A4
:10C5E000A3F5A47300221A60FEF70AFA07F14C03C0
:10C5F00007F1480207F5C871A1F5C670BF49006888
:10C6000008F08CFCC7F84001D7F84031022B07D066
:10C610004FF0FF331722BA49BA4806F053FB6DE3D7
:10C6200007F5C873A3F5A4731B681A4607F5C8730A
:10C63000A3F5A2731B6819461046FDF71DFDFEF712
:10C64000E9F956E3B048FEF767F90346012B48D1F4
:10C6500007F5C873A3F5A67300221A6007F5C8731F
:10C66000A3F5A87300221A6007F5C873A3F5AA738F
:10C6700000221A60FEF7C4F907F1400107F14402F5
:10C6800007F5C873A3F5C67007F13C0300930B468A
:10C690009E49006808F042FCC7F84401D7F84431CD
:10C6A000032B07D04FF0FF3317229549954806F02A
:10C6B00009FB23E307F5C873A3F5A6731B681846A7
:10C6C00007F5C873A3F5A8731B68194607F5C87367
:10C6D000A3F5AA731B681A46FDF790FEFEF79AF9B8
:10C6E00007E38B48FEF718F90346012B28D1FEF724
:10C6F00087F9FCF7CDFCC7F84C01D7F84C3107EEB1
:10C70000903AB8EE677ADFED836AC7EE267AC7ED16
:10C71000527AD7F84801FBF747FF02460B4607F16C
:10C7200008007D4908F0D8FB07F10803184602F01D
:10C73000F1FA4FF4FA7002F0D9FCFEF76BF9D8E287
:10C740007648FEF7E9F80346012B56D107F5C87382
:10C75000A3F5AC7300221A6007F5C873A3F5AE7396
:10C7600000221A60FEF74CF907F1340307F1380292
:10C7700007F5C871A1F5C6706949006808F0CEFBDD
:10C78000C7F85401D7F85431022B07D04FF0FF33CC
:10C7900017225B495B4806F095FAAFE207F5C873CC
:10C7A000A3F5AC731B6819460120FDF711F95D4B29
:10C7B0001B685D491846FBF72BFD0346002B07D18C
:10C7C00007F5C873A3F5AE731B681846FCF7BCFCED
:10C7D000544B1B6854491846FBF71AFD0346002BBF
:10C7E00008D11423C7F85031D7F850311946012029
:10C7F000FDF7EEF8FEF70EF97BE24C48FEF78CF8F9
:10C800000346012B40F09C8007F5C873A3F5B07375
:10C8100000221A604FF00003C7F85C31FEF7F0F811
:10C8200007F1300207F5C873A3F5C67340491868CD
:10C8300008F074FBC7F8580107F5C873A3F5B07387
:10C8400007221A60D7F85831012B06D0642317222B
:10C850002B492C4806F036FA50E2902000F064FC98
:10C860000346002B42D007F5C873A3F5B0731B68CD
:10C87000184600F049FD87ED570AD7ED577AB7EE15
:10C88000007AF4EEC77AF1EE10FA08D9D7ED577AAC
:10C89000B1EE007AF4EEC77AF1EE10FA15DB254B13
:10C8A000C7F85C31D7F85C01FBF77EFE02460B4609
:10C8B00007F10800204908F00FFB07F108031846AC
:10C8C00002F028FAFEF7A6F818E2D7F85C01FBF7A9
:10C8D0006BFE02460B4607F10800174908F0FCFA08
:10C8E00007F10803184602F015FA02E00D4B134A4F
:10C8F0001A60FEF78FF8FCE164010020C89001087F
:10C90000848F0108A80800206C010020D89001083D
:10C910008400002000247449E8900108EC01002004
:10C92000F090010814000020608F01080C02002024
:10C930000091010866661E410C91010814910108DE
:10C94000AD48FDF7E9FF0346012B40F0CD8107F527
:10C95000C873A3F5B27300221A6007F5C873A3F574
:10C96000B4734FF000021A60002387F86331FEF7BA
:10C9700047F807F1280307F12C0207F5C871A1F564
:10C98000C6709E49006808F0C9FA07F5C873A3F598
:10C99000B27307221A6007F5C873A3F5B473D3ED19
:10C9A000007AB0EE670A00F031FD034687F8633184
:10C9B00007F5C873A3F5B2731B68013B062B00F2A1
:10C9C000298101A252F823F0E5C9000831CA000804
:10C9D0007DCA0008C9CA000815CB000861CB000851
:10C9E000ADCB000801222021854800F099FD97F881
:10C9F000633100222921834800F0DAFC0346002B32
:10CA000002D0814B814A1A6097F863319BB20022B1
:10CA100029217C4800F03CFD0346002B02D07A4BD4
:10CA20007A4A1A6000222021754800F079FDF2E070
:10CA300001222021724800F073FD97F86331012232
:10CA40002921704800F0B4FC0346002B02D06E4B45
:10CA50006E4A1A6097F863319BB201222921694816
:10CA600000F016FD0346002B02D0674B674A1A60A0
:10CA700000222021624800F053FDCCE00122102169
:10CA80005F4800F04DFD97F8633100222B215D488F
:10CA900000F08EFC0346002B02D05B4B5B4A1A6011
:10CAA00097F863319BB200222B21564800F0F0FC2E
:10CAB0000346002B02D0544B544A1A600022102126
:10CAC0004F4800F02DFDA6E0012210214C4800F057
:10CAD00027FD97F8633101222B214A4800F068FCBA
:10CAE0000346002B02D0484B484A1A6097F863313E
:10CAF0009BB201222B21434800F0CAFC0346002BC5
:10CB000002D0414B414A1A60002210213C4800F0FB
:10CB100007FD80E0012240213D4800F001FD97F82B
:10CB2000633100222D21374800F042FC0346002BE0
:10CB300002D0354B354A1A6097F863319BB2002218
:10CB40002D21304800F0A4FC0346002B02D02E4BD0
:10CB50002E4A1A60002240212D4800F0E1FC5AE0E4
:10CB6000012240212A4800F0DBFC97F863310122C2
:10CB70002D21244800F01CFC0346002B02D0224B40
:10CB8000224A1A6097F863319BB201222D211D4879
:10CB900000F07EFC0346002B02D01B4B1B4A1A60A0
:10CBA000002240211A4800F0BBFC34E00122202181
:10CBB000174800F0B5FC97F8633100222F21114887
:10CBC00000F0F6FB0346002B02D00F4B0F4A1A6011
:10CBD00097F863319BB200222F210A4800F058FCDD
:10CBE0000346002B02D0084B084A1A60002220217D
:10CBF000074800F095FC0EE014020020189101088F
:10CC0000000402407405002014000020289101084F
:10CC1000000C024000BF3B4B1B683B491846FBF72A
:10CC2000F7FA0346002B5AD107F5C873A3F5B27380
:10CC30001B68184600F068FBF0EE407A07F5C873F1
:10CC4000A3F5B473C3ED007A07F5C873A3F5B47305
:10CC5000D3ED007AB7EE007AF4EEC77AF1EE10FA6F
:10CC60000CD907F5C873A3F5B473D3ED007AB1EE10
:10CC7000007AF4EEC77AF1EE10FA1CDB07F5C87300
:10CC8000A3F5B473214A1A6007F5C873A3F5B4730A
:10CC90001B681846FBF788FC02460B4607F10800A4
:10CCA0001B4908F019F907F10803184602F032F899
:10CCB000FDF7B0FE22E007F5C873A3F5B4731B6857
:10CCC0001846FBF771FC02460B4607F108001149B4
:10CCD00008F002F907F10803184602F01BF800F00B
:10CCE00037FCFDF797FE04E0FDF78AFE572001F0C0
:10CCF000FFFF01220849094806F06FF807F5C877D9
:10CD0000BD4680BD14000020608F010866661E418C
:10CD10000C9101082C910108F4040020A8080020BF
:10CD200080B58AB000AF07F1140300221A605A6080
:10CD30009A60DA601A6100233B61964B1B6B954A3F
:10CD400043F010031363934B1B6B03F010033B6121
:10CD50003B690023FB608F4B1B6B8E4A43F004033F
:10CD600013638C4B1B6B03F00403FB60FB68002315
:10CD7000BB60884B1B6B874A43F001031363854BF1
:10CD80001B6B03F00103BB60BB6800237B60814B1E
:10CD90001B6B804A43F0020313637E4B1B6B03F053
:10CDA00002037B607B6800233B607A4B1B6B794AF4
:10CDB00043F008031363774B1B6B03F008033B60DE
:10CDC0003B6800224BF61F71734802F0F7FD00220A
:10CDD00046F23F01714802F0F1FD0022F92170484E
:10CDE00002F0ECFD002243F233016E4802F0E6FD52
:10CDF000002242F660416C4802F0E0FD4BF61F73E2
:10CE00007B610123BB610023FB6100233B6207F1CF
:10CE100014031946604802F031FB40237B614FF454
:10CE20008813BB610223FB6107F1140319465A48BA
:10CE300002F024FB46F23F037B610123BB61002328
:10CE4000FB6100233B6207F114031946534802F0CB
:10CE500015FB4FF400437B610023BB610023FB61A2
:10CE600007F1140319464D4802F008FBF9237B61D2
:10CE70000123BB610023FB6100233B6207F1140324
:10CE80001946474802F0FAFA43F233037B61012363
:10CE9000BB610023FB6100233B6207F114031946C9
:10CEA000404802F0EBFA4FF480437B610023BB6102
:10CEB0000123FB6107F114031946374802F0DEFA3B
:10CEC00042F660437B610123BB610023FB610023C9
:10CED0003B6207F114031946334802F0CFFA49F2D6
:10CEE00003037B610023BB610223FB6107F1140391
:10CEF00019462D4802F0C2FA40237B610223BB6130
:10CF00000023FB6100233B6203237B6207F11403D0
:10CF10001946224802F0B2FA4FF460737B61002395
:10CF2000BB610223FB6107F1140319461B4802F0A1
:10CF3000A5FA4FF419437B610023BB610023FB6119
:10CF400007F114031946164802F098FA98237B61FA
:10CF50000023BB610023FB6107F11403194612484B
:10CF600002F08CFAC0237B610023BB610023FB61CC
:10CF700007F1140319460B4802F080FA0022002141
:10CF8000172002F0B2F9172002F0CBF900BF2837C2
:10CF9000BD4680BD0038024000100240000802403B
:10CFA0000000024000040240000C024080B500AFC7
:10CFB000124B134A1A60114B124A5A600F4B00224F
:10CFC0009A600E4B0022DA600C4B4FF480421A61DB
:10CFD0000A4B00225A61094B00229A61074B00223A
:10CFE000DA61064B00221A62044802F025FD03466E
:10CFF000002B01D000F0B0FC00BF80BD7405002004
:10D0000000580040801A060080B58AB000AF7860F2
:10D0100007F1140300221A605A609A60DA601A61FC
:10D020007B681B68294A93424BD100233B61284B04
:10D030001B6B274A43F002031363254B1B6B03F062
:10D0400002033B613B690023FB60214B1B6B204AC1
:10D0500043F0040313631E4B1B6B03F00403FB60DC
:10D06000FB684FF480637B611223BB610023FB618B
:10D0700003233B6204237B6207F11403194615481E
:10D0800002F0FCF94FF480537B611223BB61002353
:10D09000FB6103233B6204237B6207F114031946FF
:10D0A0000D4802F0EBF90023BB60094B1B6C084AEA
:10D0B00043F480031364064B1B6C03F48003BB60D2
:10D0C000BB6800BF2837BD4680BD00BF0058004088
:10D0D00000380240000402400008024080B582B0DF
:10D0E00000AF78607B681B680B4A93420FD10B4BF3
:10D0F0001B6C0A4A23F4800313644FF480610848D0
:10D1000002F050FB4FF48051064802F04BFB00BF89
:10D110000837BD4680BD00BF0058004000380240BF
:10D12000000402400008024080B582B000AF034610
:10D13000FB71FB792C2B0DD1FB7999B2642303226F
:10D140000F4803F01DF90346002B01D1012313E022
:10D15000002311E0FB79902B0DD1FB7999B2642368
:10D160000322074803F00CF90346002B01D10123E9
:10D1700002E0002300E0002318460837BD4680BDCA
:10D180007405002080B586B002AF0346FB71FB79C1
:10D19000072B02D94FF6FF7348E000237B737B7B9C
:10D1A00063F07F03DBB27B7397F907301B015BB23F
:10D1B00003F070035AB27B7B5BB213435BB2DBB20A
:10D1C0007B737B7B43F00803DBB27B737B7B43F099
:10D1D0000303DBB27B7307F10D0264230093012389
:10D1E0009021144802F09CFD0346002B02D04FF61C
:10D1F000FF731BE0012001F079FF07F108026423AF
:10D200000093022390210B4802F088FE0346002B76
:10D2100002D04FF6FF7309E03B7A1BB21B021AB231
:10D220007B7A1BB213431BB2FB81FB891846103774
:10D23000BD4680BD7405002080B584B000AF0346B4
:10D24000FB80FB8807EE903AB8EE677ADFED1B6A49
:10D25000C7EE267AC7ED027AD7ED027A9FED187AEB
:10D2600067EE877AB0EE670A0BF01EFEB0EE407AEA
:10D27000DFED136AC7EE267AC7ED037AD7ED037A9E
:10D280009FED107AF4EEC77AF1EE10FA02D54FF066
:10D290000043FB60D7ED037AB1EE007AF4EEC77A73
:10D2A000F1EE10FA01DD084BFB60FB6807EE903AE7
:10D2B000B0EE670A1037BD4680BD00BF00007A445B
:10D2C0000000C8426666663F0000A0C080B584B01A
:10D2D00000AF0346FB71FB791846FFF753FF034687
:10D2E000FB81FB894FF6FF72934202D1FFEE007A79
:10D2F00005E0FB891846FFF79FFFF0EE407AB0EE9D
:10D30000670A1037BD4680BD80B582B000AF786037
:10D310007B68013B072B43D801A252F823F000BFE2
:10D3200041D300084DD3000859D3000865D3000845
:10D3300071D300087DD3000889D3000895D3000875
:10D340000020FFF7C3FFF0EE407A2BE00420FFF748
:10D35000BDFFF0EE407A25E00120FFF7B7FFF0EEC9
:10D36000407A1FE00520FFF7B1FFF0EE407A19E0A8
:10D370000220FFF7ABFFF0EE407A13E00620FFF744
:10D38000A5FFF0EE407A0DE00320FFF79FFFF0EEDF
:10D39000407A07E00720FFF799FFF0EE407A01E0BE
:10D3A000FFEE007AB0EE670A0837BD4680BD00BFC9
:10D3B00080B586B002AF7860084611461A4603462B
:10D3C000FB700B46BB7013467B70BB78002B14BF01
:10D3D00001230023DBB2FB73FB7B1B01BB73BB7B15
:10D3E0003B727B787B72FB789BB25B0099B207F152
:10D3F0000802642300930223786802F091FC03463C
:10D400007B737B7B18461037BD4680BD80B584B0EA
:10D4100000AF87ED010AD7ED017A9FED1A7AF4EE9D
:10D42000C77AF1EE10FA01D8002327E0D7ED017A90
:10D43000B1EE047AF4EEC77AF1EE10FA01DB26239E
:10D440001CE0D7ED017A9FED0F7A77EEC77A9FED5A
:10D450000E7A27EE877ADFED0D6AC7EE267AC7EDE2
:10D46000037A97ED030A0BF01FFDF0EE407AFCEE15
:10D47000E77AC7ED007A3B78FB72FB7A18461037E3
:10D48000BD4680BDEC51383F00001842C2F58840CF
:10D4900080B586B002AF7860084611461A4603464A
:10D4A000FB700B46BB7013463B80012220211B48BA
:10D4B00000F036F83B88C3F308033B80BB7803F0E9
:10D4C0000103DBB20233FB7397F90F301B015AB231
:10D4D0003B881B0A9BB25BB203F001035BB21343B0
:10D4E0005BB2DBB23B733B88DBB27B73FB789BB2F6
:10D4F0005B0099B207F10C024FF47A730093022398
:10D50000786802F00DFC0346BB730F2001F0EEFDBE
:10D51000BB7B18461037BD4680BD00BF00040240EB
:10D5200080B582B000AF78600B467B8013467B707D
:10D530007B78002B14BF01230023DBB21A467B88C3
:10D540001946786802F03AFA00BF0837BD4680BD38
:10D5500080B588B000AF07F1080300221A605A6056
:10D560009A60DA601A613A4802F0AAFB00237B60F5
:10D57000384B1B6B374A43F002031363354B1B6B6D
:10D5800003F002037B607B681123FB6000233B6197
:10D5900002237B614FF48063BB6007F108031946E7
:10D5A0002D4801F06BFF4FF48053BB6007F1080377
:10D5B00019462A4801F062FF0023FB6114E00122B2
:10D5C0004FF48061244802F0F9F9012001F08EFD4A
:10D5D00000224FF48061204802F0F0F9012001F0B0
:10D5E00085FDFB690133FB61FB69082BE7DD002248
:10D5F0004FF48051194802F0E1F9012001F076FD65
:10D6000001224FF48061144802F0D8F9012001F0A2
:10D610006DFD01224FF48051104802F0CFF9012036
:10D6200001F064FD0B4B1B6A0A4A43F4800313624A
:10D63000022001F05BFD074B1B6A064A23F48003BE
:10D640001362FFF7B3FC00BF2037BD4680BD00BFAB
:10D650007405002000380240000402400008024027
:10D6600080B500AF01F0D0FC00F00AF9FFF758FBDD
:10D67000FFF79CFC00F0A2FC00F016FD00F076FD28
:10D6800000F0C2FD00F00EFE00F07AFE01F0ECF9B1
:10D6900001F014FA01F03CFA00F042FC00F0EAFB61
:10D6A00001221021674802F089F9674B93E80300D3
:10D6B00001F03AFC00220221624802F07FF90022C8
:10D6C0000421604802F07AF9002208215D4802F046
:10D6D00075F900224FF400715C4802F06FF90022E6
:10D6E0004FF48071594802F069F9002280215748AF
:10D6F00002F064F900220221554802F05FF900228D
:10D700000121534802F05AF900224FF480514F484A
:10D7100002F054F900224FF400614C4802F04EF937
:10D7200000224FF48061494802F048F900224FF48A
:10D730000051464802F042F900224FF400414348AC
:10D7400002F03CF9002220213E4802F037F9002285
:10D750008021404802F032F9002240213D4802F089
:10D760002DF9002220213B4802F028F90022102147
:10D77000384802F023F900220821364802F01EF949
:10D7800000220121334802F019F9002220213048FB
:10D7900002F014F9002210212D4802F00FF90022A6
:10D7A00040212D4802F00AF9002220212A4802F0E7
:10D7B00005F92A4B93E8030001F0B6FB284B93E8E8
:10D7C000030001F0B1FB204B93E8030001F0ACFB38
:10D7D000012201211D4802F0F1F8642310222149A1
:10D7E000214805F06FFA012220491F4805F0F5FA9B
:10D7F0001F4B93E8030001F087FB134B93E80300F2
:10D8000001F092FB1B4B93E8030001F07DFB0E4BF4
:10D8100093E8030001F088FB174B93E8030001F045
:10D8200063FB094B93E8030001F07EFB0A2001F043
:10D830005DFC01F04FFC0346104A1360FDF75AF8F7
:10D84000FCE700BF00080240680200200010024010
:10D850000004024000000240000C02405802002078
:10D86000600200203C910108A8080020F404002078
:10D87000D0020020D8020020C8020020700500203D
:10D8800080B594B000AF07F11C0334220021184684
:10D8900007F04AFC07F1080300221A605A609A60F8
:10D8A000DA601A6100237B60294B1B6C284A43F025
:10D8B00080531364264B1B6C03F080537B607B68A2
:10D8C00000233B60234B1B6823F44043214A43F46D
:10D8D000804313601F4B1B6803F440433B603B686D
:10D8E0000223FB610123BB621023FB6202237B63E3
:10D8F0000023BB630823FB6354233B6402237B6444
:10D900000223BB640223FB6407F11C03184603F0E7
:10D91000AFFC0346002B01D000F01EF80F23BB60C4
:10D920000223FB6000233B614FF480537B610023A3
:10D93000BB6107F108030221184603F0D5F903463D
:10D94000002B01D000F008F800BF5037BD4680BD65
:10D95000003802400070004080B400AF72B600BFD3
:10D9600000BFFDE780B582B000AF78600B46FB706A
:10D97000FB78002B10D17B6818687B689B8801229C
:10D98000194602F01BF87B6898687B689B89002227
:10D99000194602F013F80FE07B6818687B689B88D3
:10D9A0000022194602F00AF87B6898687B689B8918
:10D9B0000122194602F002F800BF0837BD4680BDBB
:10D9C00080B582B000AF78607B6818687B689B8800
:10D9D0000022194601F0F2FF7B6898687B689B89FA
:10D9E0000022194601F0EAFF00BF0837BD4680BD9E
:10D9F00080B582B000AF786000211948FFF7B2FF10
:10DA0000184B93E8030001F08FFA786801F09CF955
:10DA10001348FFF7D5FF134B93E8030001F084FA96
:10DA20004FF47A7001F062FB01210D48FFF79AFF75
:10DA30000C4B93E8030001F077FA642001F084F9BD
:10DA40000748FFF7BDFF074B93E8030001F06CFAAE
:10DA50004FF4967001F04AFB00BF0837BD4680BD09
:10DA6000280200205802002080B582B000AF786004
:10DA7000164B93E8030001F017FA4FF4967001F08B
:10DA800035FB00211248FFF76DFF124B93E80300AE
:10DA900001F04AFA786801F029FB0D48FFF790FF82
:10DAA0000C4B93E8030001F03FFA4FF4967001F03D
:10DAB0001DFB064B93E8030001F006FA642001F019
:10DAC00015FB00BF0837BD4680BD00BF50020020D7
:10DAD000380200205802002080B582B000AF3B46DB
